:100000000C94F9090C94400A0C94400A0C94400A90
:100010000C94400A0C94400A0C94400A0C94400A38
:100020000C94400A0C94400A0C94482E0C941A2FFD
:100030000C9431200C94400A0C94400A0C94400A11
:100040000C94400A0C94400A0C94400A0C94400A08
:100050000C94400A0C948A200C94400A0C94400A98
:100060000C94400A0C94400A0C94400A0C94400AE8
:100070000C94400A0C94400A0C94400A0C94400AD8
:100080000C94400A0C94400A0C94400A0C94400AC8
:100090000C94400A0C94400A0C94400A0C94400AB8
:1000A0000C94400A0C94400A0C94400AE115E115A6
:1000B0001316131660167E169F179F1789161E17A4
:1000C0002F172F178F179F179F1798174D184D1819
:1000D0005F185F1856185F185F185F184D184D1895
:1000E0005B185F185F185B18872FAE2FA630AE2FF6
:1000F000A630FA2F1D30A6307430833029001E0040
:100100001F00200021002200000023002400250001
:10011000260027002E002B0014001A0008001500EE
:10012000170000001C0018000C0012001300310022
:10013000E00004001600070009000A0000000B00A0
:100140000D000E000F0033003400E1001D001B0005
:10015000060019000500E30011001000360037000A
:100160003800E1000F583900E200350201512A0041
:1001700028002C002D002F00300035004C001050BE
:100180000100010001000100010000000100010068
:100190000100010001003502010001000100010021
:1001A0000100010000000100010001000100010048
:1001B000A8000100010001002A082B010100000035
:1001C0005000510052004F000100A9000100010041
:1001D0000100010001000100010001000100010017
:1001E00001000100AA00010001000100010001005E
:1001F00001000100010001000100AC00AB00AE00F5
:1002000010501E00010020002100220000002300E9
:1002100024002500260027002E002B0014001A00C1
:1002200008001500170000001C0018000C00120048
:1002300013003100E00004001600070009000A0066
:1002400000000B000D000E000F0033003400E10031
:100250001D001B00060019000500290011001000F8
:10026000360037005200E1000000000000000000EE
:10027000E2002C0028002C0000000000500051007B
:100280004F001050000000000000000000000000BF
:10029000000000000000000000000000000000005E
:1002A000000000000000000000000000000000004E
:1002B000000000000000000000000000000000003E
:1002C000000000000000000000000000000000002E
:1002D000000000000000000000000000000000001E
:1002E000000000000000000000000000000000000E
:1002F00000000000000000000000000000000000FE
:100300000000005C0100010001000100010001008B
:1003100000000100010001000100010001000100D6
:1003200001000100010001000100000001000100C6
:1003300001000100010001000100010001000100B5
:1003400001000100000001000100010001000100A6
:100350000100010001000100010001000100010095
:100360000100010001000100010001000100010085
:100370000100010001000100010001000100010075
:100380000100010001000100010001000100010065
:100390000100000001000100010001000100010056
:1003A0000100010001000100010001000000010046
:1003B0000100010001000100010001000100010035
:1003C0000100010001000000010001000100010026
:1003D0000100010001000100010001000100010015
:1003E0000100010001000100010001000100010005
:1003F00001000100010001000100010001000100F5
:1004000001000100010001000100010001000100E4
:1004100001000100000001000100010001000100D5
:1004200001000100010001000100010001000000C5
:1004300001000100010001000100010001000100B4
:1004400001000100010001000000010001000100A5
:100450000100010001000100010001000100010094
:100460000100010001000100010001000100010084
:100470000100010001000100010001000100010074
:100480000100010001000100010001000100010064
:100490000100010001000000010001000100010055
:1004A0000100010001000100010001000100010044
:1004B0000000010001000100010001000100010035
:1004C0000100010001000100010000000100010025
:1004D0000100010001000100010001000100010014
:1004E0000100010001000100010001000100010004
:1004F00001000100010001000100010001000100F4
:1005000001000100010001000100010001000100E3
:1005100001000100010001000000010001000100D4
:1005200001000100010001000100010001000100C3
:1005300001000000010001000100010001000100B4
:1005400001000100010001000100010000000100A4
:100550000100010001000100010001000100010093
:100560000100010001000100010001000100010083
:100570000100010001000100010001000100010073
:100580000100010001000100010001000100010063
:100590000100010001000100010000000100010054
:1005A0000100010001000100010001000100010043
:1005B0000100010000000100010001000100010034
:1005C0000100010001000100010001000100000024
:1005D0000100010001000100010001000100010013
:1005E0000100010001000100010001000100010003
:1005F00001000100010001000100010001000100F3
:1006000001000100010001000100010001000100E2
:1006100001000100010001000100010000000100D3
:1006200001000100010001000100010001000100C2
:1006300001000100010000000100010001000100B3
:1006400001000100010001000100010001000100A2
:100650000000010001000100010001000100010093
:100660000100010001000100010001000100010082
:100670000100010001000100010001000100010072
:100680000100010001000100010001000100010062
:100690000100010001000100010001000100000053
:1006A0000100010001000100010001000100010042
:1006B0000100010001000100000001000100010033
:1006C0000100010001000100010001000100010022
:1006D0000100000001000100010001000100010013
:1006E0000100010001000100010001000100010002
:1006F00001000100010001000100010001000100F2
:1007000001000100010001000100010001000100E1
:1007100001000100010001000100010001000100D1
:1007200000000100010001000100010001000100C2
:1007300001000100010001000100000001000100B2
:1007400001000100010001000100010001000100A1
:100750000100010000000100010001000100010092
:100760000100010001000100010001000100010081
:100770000100010001000100010001000100010071
:100780000100010001000100010001000100010061
:100790000100010001000100010001000100010051
:1007A0000100000001000100010001000100010042
:1007B0000100010001000100010001000000010032
:1007C0000100010001000100010001000100010021
:1007D0000100010001000000010001000100010012
:1007E0000100010001000100010001000100010001
:1007F00001000100010001000100010001000100F1
:1008000001000100010001000100010001000100E0
:1008100001000100010001000100010001000100D0
:1008200001000100000001000100010001000100C1
:1008300001000100010001000100010001000000B1
:1008400001000100010001000100010001000100A0
:100850000100010001000100000001000100010091
:100860000100010001000100010001000100010080
:100870000100010001000100010001000100010070
:100880000100010001000100010001000100010060
:100890000100010001000100010010501150125030
:1008A00013500000000000000000000000000000E5
:1008B0000000005C2B00000052000000000000005F
:1008C000000000000000000000000000A800E000A0
:1008D000500051004F000000000000005000510087
:1008E00052004F000000A900E100000000000000DD
:1008F00000000000290000000000000000000000CF
:10090000AA00010000000000000000002C002800E8
:100910002C0000000000AC00AB00AE004445425586
:10092000473A2064697361626C65642E0A0044452D
:100930004255473A20656E61626C65642E0A000A72
:10094000002530313662003A200025303258000A46
:10095000722F6320303132333435363738394142E3
:10096000434445460A00556E69636F646520696EAD
:10097000707574206D6F64652073657420746F3AB0
:100980002025750A00556E69636F646520696E7075
:100990007574206D6F646520696E697420746F3A98
:1009A0002025750A000A002530325820006B657931
:1009B000626F6172645F7265706F72743A20000AD0
:1009C0000025303258006B6579626F6172645F7325
:1009D00065745F6C65643A2000290A002575002F54
:1009E000002575005D280025640020002564002096
:1009F0000025640020002564007C0025303258006A
:100A00006D6F7573656B6579205B62746E7C7820A1
:100A100079207620685D287265702F61636C293AB1
:100A2000205B006D6B5F776865656C5F74696D65F1
:100A30005F746F5F6D6178203D2025640A006D6BE7
:100A40005F776865656C5F6D61785F73706565641D
:100A5000203D2025640A006D6B5F74696D655F74CD
:100A60006F5F6D6178203D2025640A006D6B5F6DBE
:100A700061785F7370656564203D2025640A006DB0
:100A80006B5F696E74657276616C203D2025640A27
:100A9000006D6B5F64656C6179203D2025640A0000
:100AA0006D6B5F776865656C5F74696D655F746FAA
:100AB0005F6D6178203D2025640A006D6B5F77686B
:100AC00065656C5F6D61785F7370656564203D205E
:100AD00025640A006D6B5F74696D655F746F5F6D8F
:100AE0006178203D2025640A006D6B5F6D61785F41
:100AF0007370656564203D2025640A006D6B5F6935
:100B00006E74657276616C203D2025640A006D6B01
:100B10005F64656C6179203D2025640A000A002528
:100B20007500363A20776865656C5F74696D655F3E
:100B3000746F5F6D61783A20000A00257500353AC0
:100B400020776865656C5F6D61785F73706565645B
:100B50003A20000A00257500343A2074696D655FFB
:100B6000746F5F6D61783A20000A00257500333A92
:100B7000206D61785F73706565643A20000A002516
:100B80007500323A20696E74657276616C286D73F7
:100B9000293A20000A00257500313A2064656C610D
:100BA00079282A31306D73293A20000A092D205600
:100BB000616C756573202D0A004D3E004D25643E25
:100BC00020003F007365742064656661756C740A6B
:100BD00000433E200077686572652064656C74612F
:100BE0003A20637572736F723D25642C20776865B7
:100BF000656C3D25640A53656520687474703A2FEE
:100C00002F656E2E77696B6970656469612E6F72EE
:100C1000672F77696B692F4D6F7573655F6B6579AA
:100C2000730A000A092D204D6F7573656B65792075
:100C30002D0A4553432F713A09717569740A313A87
:100C40000964656C6179282A31306D73290A323A5A
:100C500009696E74657276616C286D73290A333A7E
:100C6000096D61785F73706565640A343A09746967
:100C70006D655F746F5F6D61780A353A09776865F5
:100C8000656C5F6D61785F73706565640A363A09FB
:100C9000776865656C5F74696D655F746F5F6D61C2
:100CA000780A0A703A097072696E742076616C7500
:100CB00065730A643A097365742064656661756CCE
:100CC00074730A75703A092B310A646F776E3A09AA
:100CD0002D310A706775703A092B31300A706764DC
:100CE0006F776E3A092D31300A0A7370656564209A
:100CF0003D2064656C7461202A206D61785F73709B
:100D0000656564202A2028726570656174202F2033
:100D100074696D655F746F5F6D6178290A003F00CB
:100D20004D3E2000433E20004C25640A0074696D4E
:100D300065725F72656164333228293A2025303448
:100D40006C580A006B6579626F6172645F69646CEC
:100D5000653A2025580A006B6579626F6172645F9D
:100D600070726F746F636F6C3A2025580A00686F59
:100D700073745F6B6579626F6172645F6C656473D5
:100D800028293A2025580A000A092D205374617435
:100D90007573202D0A004743433A20352E342E30F8
:100DA000204156522D4C4942433A20322E302E30AB
:100DB000204156525F415243483A20617672350ACB
:100DC000004F5054494F4E533A204C554641204D08
:100DD0004F5553454B45592045585452414B455961
:100DE00020434F4E534F4C4520434F4D4D414E44B1
:100DF00020343039360A004255494C443A202230DA
:100E0000306436326422202830343A30333A323477
:100E1000204A756C2032332032303230290A005695
:100E200049443A203078464545442850726F6665FB
:100E30007429205049443A203078363036322841DF
:100E40007472657573363229205645523A203078CF
:100E5000303030310A000A092D2056657273696FEF
:100E60006E202D0A000A092D20436F6E736F6C658A
:100E7000202D0A4553432F713A09717569740A6D23
:100E80003A096D6F7573656B65790A000A092D2043
:100E90004D61676963202D0A443A094465627567AC
:100EA000204D65737361676520546F67676C650AD1
:100EB000583A094D617472697820446562756720FB
:100EC0004D6F646520546F67676C65202D205368F3
:100ED0006F77206B65797072657373657320696EC7
:100EE000206D617472697820677269640A4B3A09EF
:100EF0004B6579626F617264204465627567205446
:100F00006F67676C65202D2053686F77206B65795C
:100F10007072657373207265706F72740A4D3A094E
:100F20004465627567204D6F75736520546F676700
:100F30006C650A563A0956657273696F6E0A533AC0
:100F4000095374617475730A433A0941637469768D
:100F500061746520436F6E736F6C65204D6F6465BF
:100F60000A46312D4631303A095377697463682057
:100F7000746F204C6179657220302D3920284631FC
:100F800030203D204C30290A302D393A09537769F9
:100F900074636820746F204C6179657220302D393C
:100FA0000A47524156453A09537769746368207479
:100FB0006F204C6179657220302028616C746572F5
:100FC0006E617465290A423A094A756D7020746F22
:100FD00020426F6F746C6F616465720A4553433AC7
:100FE000094A756D7020746F20426F6F746C6F6169
:100FF0006465722028616C7465726E617465290A7B
:10100000453A095072696E7420454550524F4D2043
:1010100053657474696E67730A4253504143453A8D
:1010200009436C65617220454550524F4D0A000AD4
:10103000002575002E6E6B726F3A20000A00257530
:10104000002E737761705F6261636B736C617368AC
:101050005F6261636B73706163653A20000A00250B
:1010600075002E737761705F67726176655F657377
:10107000633A20000A002575002E6E6F5F67756960
:101080003A20000A002575002E737761705F726147
:101090006C745F726775693A20000A002575002E2E
:1010A000737761705F6C616C745F6C6775693A200F
:1010B000000A002575002E737761705F7263746C8F
:1010C0005F726775693A20000A002575002E7377F4
:1010D00061705F6C63746C5F6C6775693A20000ABD
:1010E000002575002E636170736C6F636B5F746FA6
:1010F0005F636F6E74726F6C3A20000A0025750092
:101100002E737761705F636F6E74726F6C5F636173
:1011100070736C6F636B3A20000A00253032580000
:101120006B65796D61705F636F6E6669672E726162
:10113000773A20000A002575002E6D6F7573653AA9
:1011400020000A002575002E6B6579626F6172645C
:101150003A20000A002575002E6D61747269783A94
:1011600020000A002575002E656E61626C653A20CC
:10117000000A00253032580064656275675F636F4E
:101180006E6669672E7261773A20000A0025750045
:1011900064656661756C745F6C617965723A200094
:1011A0003F000A6D6F7573653A206F66660A000A24
:1011B0006D6F7573653A206F6E0A000A6B65796210
:1011C0006F6172643A206F66660A000A6B65796225
:1011D0006F6172643A206F6E0A000A6D6174726901
:1011E000783A206F66660A000A6D61747269783A0F
:1011F000206F6E0A000A64656275673A206F666642
:101200000A000A64656275673A206F6E0A000A0A6E
:101210004A756D70696E6720746F20626F6F746CB1
:101220006F616465722E2E2E2000433E2000436CB9
:10123000656172696E6720454550524F4D0A0065E1
:1012400065636F6E6669673A0A005B735D004B65A4
:1012500079626F6172642073746172742E0A005B2C
:10126000575D005B535D005B525D005B445D005B5E
:10127000435D00040330000000120341007400725B
:10128000006500750073003600320000000E035048
:101290000072006F0066006500740000000403091E
:1012A0000409025B00030100A0FA09040000010325
:1012B00001010009211101000122400007058103FD
:1012C00008000A09040100010300000009211101BE
:1012D00000012281000705820320000A09040200A0
:1012E000020300000009211101000122220007056C
:1012F00083032000010705030320000112011001F0
:1013000000000008EDFE62600100010203010631E9
:10131000FF0974A1010975150026FF0095207508C5
:1013200081020976150026FF00952075089102C0FC
:1013300005010902A10185020901A10005091901A0
:101340002905150025019505750181029501750393
:1013500081010501093009311581257F9502750844
:10136000810609381581257F950175088106050CD0
:101370000A38021581257F950175088106C0C005D0
:10138000010980A101850319012AB700150126B7BB
:1013900000950175108100C0050C0901A1018504AB
:1013A00019012AA002150126A002950175108100DD
:1013B000C005010906A101050719E029E715002567
:1013C00001950875018102950175088101050719CC
:1013D0000029FF150026FF00950675088100050805
:1013E0001901290595057501910295017503910172
:1013F000C00011241FBECFEFDAE0DEBFCDBF04B6C0
:1014000003FE27C08091830290918402A0918502FF
:10141000B09186028730904BA740B04BD1F4109228
:10142000830210928402109285021092860214BEEA
:1014300084B7877F84BF0FB6F894A8958091600029
:10144000886180936000109260000FBEE0E0F8E3D6
:10145000099511E0A0E0B1E0EEEAF2E602C00590E5
:101460000D92A23AB107D9F722E0A2EAB1E001C099
:101470001D92A338B207E1F70E946E2B0C945531F0
:101480000C940000FF93EF93E091A201F091A3016F
:10149000309709F00995EF91FF910895FC0185912E
:1014A000803011F0EFDFFBCF0895FF27E0E230E25C
:1014B00047FF0CC0419597FF09C0EDE2609570951C
:1014C00080959095611D711D811D911D27FF02C0A2
:1014D000219530E350E2AA27660F771F881F991FD6
:1014E000AA1FA41710F0A41B63955A95A9F7AA3058
:1014F00008F0A95FA05DAF93F395611571058105B3
:10150000910541F7ED3211F4EF93F395F21718F4CA
:101510003F93F395FBCF8F91B5DFFA95E1F70895EF
:10152000E991F9918591803021F0853219F0AADF97
:10153000F9CF089520E0E89455915532C1F3503326
:1015400011F4689455915A3348F4505390F3220F94
:10155000022E220F220F200D250FF4CF0EF421951D
:1015600089919991533619F3533729F1533559F12C
:10157000BC0188279927E8945C3621F489919991D8
:1015800068945591543639F446EF7EF077FF0DC0DC
:101590008FEF9FEF0AC055374AE039F0583540E1E8
:1015A00021F0523642E009F00895FF93EF937DDF7A
:1015B000EF91FF91B7CFFF93EF93FC0181918030C2
:1015C000B9F360DFFBCFFF93EF9368DFF1CFDF93D9
:1015D000CF93CDB7DEB72596A3DFCF91DF910895E6
:1015E0009C013A9521153F4138F5DC01AA27B270DC
:1015F000AC01442754709C012227387094FF0FC01F
:1016000090FF02C080E101C080E0AB2B09F0806256
:10161000452B09F08064232B69F080680BC0892F6B
:101620008170AB2B09F08260452B09F08460232B7D
:1016300009F08860FB0109940895CF93DF93EC01D2
:10164000805E9109089710F0209719F46DE975E113
:1016500002C063E178E1CE010E94F00A8C2FDF9195
:10166000CF910C947314CF93DF93EC010E94221559
:10167000CE01805E9109089710F0209719F464EA72
:1016800075E102C06AE178E1CE01DF91CF910C945F
:10169000F00ACF93DF93EC010E941D0BCE01DF9186
:1016A000CF910C94330B81E0089581E008950C9460
:1016B000550B08950C94590B1F93CF93DF9300D0D3
:1016C00000D01F92CDB7DEB749835A836B83309128
:1016D000BC0189819A81311114C0662359F02223FB
:1016E00049F00E94861D182F682F89819A810E94D7
:1016F0002F1D03C00E945A1D182F69817A81812FE6
:1017000004C00E94861D69817A810F900F900F900E
:101710000F900F90DF91CF911F910C94400CFC0122
:10172000262F408151816281738184810C945C0BEE
:10173000CF93DF93EC0160E00E948F0BBE01DF913D
:10174000CF910C945A0B0E94E51E811102C00E9499
:10175000851F0E94E70F0C94A50E0C94A10E282F54
:101760002F7041F0822F90E02A3010F44D960895AA
:101770000697089587E290E0089508950C94BD0BB4
:1017800081E008950C94C00BCF93C82F0E94BE0B2C
:101790008C2F0E94C20BCF91089508950E943B1890
:1017A0000E94CD0B2FEF84E39CE0215080409040BD
:1017B000E1F700C000000C94B0200F931F93CF936B
:1017C000DF93EC0161E00E948F0B8C01BE010E944F
:1017D000570B882309F449C0BE01C8010E94841038
:1017E000882309F442C0BE01C8010E941411882355
:1017F000E1F1BE01C8010E9455118823B1F1BE017B
:10180000C8010E948012882381F18A81882331F1E6
:1018100001308CE5180751F00E3D8CE51807D9F022
:1018200001151C45D9F40E94CE0B1FC080913702D0
:10183000C82FC095C170C0FB80F980933702CC23BC
:1018400029F08EE299E00E944E0A0FC08CE199E0E7
:101850000E944E0A0BC00E94851F07C0CE01DF9177
:10186000CF911F910F910C94530BC0E08C2FDF91FF
:10187000CF911F910F91089580E090E00895089511
:1018800021E4829FC0011124FC012DE0729FE00D34
:10189000F11D1124E60FF11DEE0FFF1FE450FF4F65
:1018A000859194910895880F991FFC01E15CF64F92
:1018B000859194910895CF93DF930E94400C0E94EC
:1018C000730DEC018115904508F041C0C11580E40D
:1018D000D80708F0D1C0C83ED10510F5C03ED105EB
:1018E00008F0FDC0C83AD10578F4C53AD10508F032
:1018F000A2C0C130D10509F4F2C008F4EEC0C43072
:10190000D10508F0ECC0E9C0CF3BD10508F49BC07D
:10191000C03CD10508F4E1C0CE01805C91099EC0B5
:10192000C11590E2D90758F4C11521E0D20708F09B
:10193000D6C0C03FD10508F4D0C0D065D0C0C11515
:1019400080E3D80708F08EC0CE019F7087C0C11514
:1019500095E5D90708F043C0C11524E5D20708F082
:10196000A2C0C11582E5D80708F5C11591E5D907D0
:1019700008F085C0CE0174E0969587957A95E1F7D9
:1019800083709C2F937021E030E002C0220F331F40
:101990009A95E2F73C68382BCF70C695C69580E2E1
:1019A000C89FE0011124C22BD32B99C09E01237044
:1019B00033278C2F86958695C115D34508F064C0D2
:1019C000C1E0D0E002C0CC0FDD1F2A95E2F720E293
:1019D000829FC0011124C82BD92BDC6880C0C1159F
:1019E00029E5D207A0F4C11588E5D80708F060C042
:1019F000C11596E5D90708F070C08C2F0E94070E1C
:101A00008F71C82FD0E0DC2FCC27D06268C0C11501
:101A10002AE5D20708F451C0CE01905681159042B4
:101A200008F05BC08D2F8F710E94070EDD27D062FA
:101A30008F71D82B54C0C55AD0E0CD5BDE4FC88122
:101A4000D0E0D0644CC0C85AD0E0CC0FDD1FCB5ED4
:101A5000DE4F0990D881C02DD46441C00E94530C40
:101A6000EC013DC0CE019927D3FF03C0EC01D86C37
:101A700036C0EC01D06C33C0DF70D06A30C0DC2FD0
:101A8000CC27C16FD06A2BC0C1E0D0E002C0CC0F20
:101A9000DD1F2A95E2F720E2829FC0011124C82BA6
:101AA000D92BDA681CC0DC2FCC27C46FD06A17C0D2
:101AB000DC2FCC27C06FD06A12C08C2F8F700E9491
:101AC000070E94E0D695C7959A95E1F7CF70D0E0D0
:101AD000DC2FCC27D069C82B02C0C0E0D0E0CE01FB
:101AE000DF91CF9108958238910569F1B0F4813387
:101AF000910509F46DC048F48932910509F463C079
:101B00008A32910509F469C008958533910509F475
:101B100055C089339105B9F00895833E910569F167
:101B200038F4803E9105B1F0823E910509F10895A7
:101B3000863E9105A9F1873E9105B9F1843E910554
:101B400009F064C023C02091740220FD4FC021FD24
:101B50004DC008958091740280FD44C0809175024B
:101B600080FF44C08091740284FD42C083EE4DC06A
:101B70008091740282FF38C0F5CF8091740282FD9B
:101B800033C08091750280FD31C0ECCF8091750229
:101B900081FF32C08091740284FD2AC087EE35C077
:101BA0008091740283FF26C0F5CF8091740283FD7B
:101BB00021C08091750281FD1FC0ECCF809174021D
:101BC00085FD1CC01DC08091740285FD19C016C022
:101BD0008091740286FD16C017C08091740286FD44
:101BE00013C010C089E311C082EE0FC080EE0DC09B
:101BF00080E00BC086EE09C084EE07C089E205C014
:101C000085E303C08AE201C081E390E008959091EA
:101C1000740292FF0DC0282F2871283019F4877F95
:101C2000846006C0282F2471243011F48B7F8860D3
:101C300093FF0DC0282F2871283119F4877E846105
:101C400006C0282F2471243111F48B7E88612091E5
:101C5000750220FF0DC0382F3871383019F4877F96
:101C6000816006C0382F3171313011F48E7F886069
:101C700021FF0DC0282F2871283119F4877E81613A
:101C800006C0282F2171213111F48E7E886194FDC8
:101C9000877E0895E82FF0E0EE0FFF1FEF59FD4F0C
:101CA000808191810895CF92DF92EF92FF920F93FE
:101CB0001F93CF93DF938FE499E00E944E0A81E651
:101CC000E82E82E0F82EC0E0D0E09AE4C92E99E038
:101CD000D92E01E419E0DF93CF93DF92CF920E94D7
:101CE000E70A87E499E00E944E0AF70181919191F9
:101CF0007F010E94D21E9F938F931F930F930E9488
:101D0000E70A8FE399E00E944E0A21968DB79EB7AD
:101D100008960FB6F8949EBF0FBE8DBFC530D10593
:101D2000D1F6DF91CF911F910F91FF90EF90DF904F
:101D3000CF90089580EA8A95F1F7089508950C945C
:101D40009E0E0C949F0E0C949E0E0C94A30ECF939B
:101D5000DF93A6E4B1E043E551E061E070E08D91EE
:101D6000E82FE295EF70F0E021A18F70EB0102C047
:101D7000CC0FDD1F8A95E2F7CE019C2F9095922320
:101D800091A392A1892B82A34A175B0741F7A3E590
:101D9000B1E048E551E061E070E08D91E82FE29517
:101DA000EF70F0E021A18F70EB0102C0CC0FDD1FBE
:101DB0008A95E2F7CE019C2F9095922391A392A150
:101DC000892B82A34A175B0741F7E7E5F2E0A1E61A
:101DD000B2E081E692E0119211921D921D928E174F
:101DE0009F07C9F785E00E94970FDF91CF910C9470
:101DF000A30B2F923F924F925F926F927F928F929E
:101E00009F92AF92BF92CF92DF92EF92FF920F9389
:101E10001F93CF93DF9396E4C92E91E0D92EE12C46
:101E2000F12C10E0AA24A394B12C31E6632E32E009
:101E3000732ED6018D916D01C82FC295CF70D0E061
:101E400099A18F70450101C0880C8A95EAF7892F06
:101E5000882989A38AA1082D009580238AA30E943E
:101E60009A0EA5010E2C02C0440F551F0A94E2F7EA
:101E7000BA0160957095E7E5F2E083E5282E81E0F0
:101E8000382E512C20813181D1014D901D01842D9E
:101E900082958F7090E0DC0190968C9190E0B42D4B
:101EA000BF7002C095958795BA95E2F780FD04C092
:101EB000C901842B952B03C0C901862397232817BA
:101EC000390721F0918380835524539432966E16FE
:101ED0007F06C1F689A1082309A38AA1882A8AA2BC
:101EE0001529EFEFEE1AFE0AFDE0EF16F10409F0F6
:101EF000A0CF212F45E061E672E087E592E00E94E5
:101F0000980F0E94AD0B812FDF91CF911F910F9100
:101F1000FF90EF90DF90CF90BF90AF909F908F9009
:101F20007F906F905F904F903F902F90089508950D
:101F3000FF920F931F93CF93DF93F82E092F162F45
:101F4000D72FC42F222349F081E08093A6010E945D
:101F500063209093A5018093A4018091A60188231A
:101F6000D9F08091A4019091A5010E947B20069751
:101F700098F0EF2DF02FA12FBD2F80E090E04C2F97
:101F800050E08417950734F4219131912D933D93BE
:101F90000196F7CF1092A601DF91CF911F910F917B
:101FA000FF900895CF93DF9397FF0DC0FB0122812F
:101FB000222349F0EC010E942610CE019F770E9457
:101FC00067100E94501081E0DF91CF9108958CE05E
:101FD00090E00E94133190E0A0E0B0E080936B02AB
:101FE00090936C02A0936D02B0936E0280913702C1
:101FF00080FF0EC080916B021F928F9385E899E05D
:102000009F938F930E94E70A0F900F900F900F906D
:10201000089560916B028CE090E00C9421318093E4
:102020006B020E9409108091370280FF0EC08091E0
:102030006B021F928F9386E699E09F938F930E9485
:10204000E70A0F900F900F900F9008950E94071EBF
:1020500080936F020E941A1E80916B02813071F092
:1020600048F0823081F08430A1F486EE0E948A1517
:1020700088E10DC082EE0E9473140BC088E193E0EA
:102080000E94490B06C082EE0E94731487E50E94ED
:102090008A158FE39CE90197F1F700C000000895CD
:1020A00080916B02813039F040F0823031F0843021
:1020B00051F488E206C08CE204C082EE0E94221530
:1020C00002C00E948A1580916F020C94171E0F9314
:1020D0001F93CF93DF938C01CCE0D0E0C8010C2E8E
:1020E00002C0969587950A94E2F78F700E94AF0B15
:1020F0000E948A152497CC3F8FEFD80779F7DF919C
:10210000CF911F910F9108950F931F93CF93DF935A
:10211000EC018B01FB018281882351F00E94071E94
:10212000CE01815E9C458530910510F40E940F1010
:10213000B801CE01DF91CF911F910F910C94D20F76
:102140000F931F93CF93DF93C62FD42F122FFC0131
:1021500082818823C9F06093A9010E946320909333
:10216000A8018093A70180E28C0F883008F057C047
:10217000C77081E001C0880FCA95EAF7DF91CF915F
:102180001F910F910C949D158091A901681330C087
:102190008091A7019091A8010E947B20883C910525
:1021A00038F500E20D0FCD17B9F080E28C0F8830C2
:1021B00040F4C77081E001C0880FCA95EAF70E9419
:1021C000A415083028F581E09D2F977001C0880F75
:1021D0009A95EAF70E949D15812F0E948A15083072
:1021E000F0F4D77081E001C0880FDA95EAF70AC0F1
:1021F00080E28C0F883098F4C77081E001C0880FAE
:10220000CA95EAF7DF91CF911F910F910C94A41515
:10221000812FDF91CF911F910F910C948A15DF913F
:10222000CF911F910F9108959C01CB01233F4CE565
:102230003407F9F078F4283DFCE53F07B9F0293D73
:102240004CE5340711F1273D3C4531F526E241EEDE
:1022500061EE1EC0253FFCE53F0799F070F0263F78
:102260003C45D1F427E245EE66EE12C027E245EE8A
:102270000EC026E241EE60EE0BC027E245EE64EEB2
:1022800007C026E241EE62EE03C028E241E065EEBF
:102290000E94A01080E00895FC018281882319F03B
:1022A0001092A901089581E00895CF93DF93EC0186
:1022B000FB018281882309F41FC1C230FCE5DF07DE
:1022C00008F41BC1C6319CE5D90738F09E012A5F8E
:1022D0003C452930310508F010C10E94F81E90934A
:1022E000750280937402C031ECE5DE0709F4C3C0C7
:1022F00008F041C0C8308CE5D80709F49AC0F0F462
:10230000C430ECE5DE0709F487C068F4C2308CE520
:10231000D80709F477C0C330DC4509F0E3C08091E9
:102320007402826076C0C630ECE5DE0709F46EC048
:1023300008F07BC08091740288606BC0CC308CE563
:10234000D80709F485C068F4CA30ECE5DE0709F463
:1023500074C008F079C00E943B18809174028068B4
:1023600058C0CE308CE5D80709F476C008F07FC09D
:10237000809174028BC0CB3FECE5DE0709F44FC0BF
:1023800018F5C3318CE5D80709F47DC078F4C13164
:10239000ECE5DE0709F473C0C231DC4509F0A2C0E8
:1023A0000E943B18809174028F7733C0C5318CE551
:1023B000D80709F472C008F486C0CA3FDC4509F0AA
:1023C00091C0809175023EC0CF3FFCE5DF0709F464
:1023D0005FC058F4CD3F9CE5D90709F444C008F428
:1023E0003FC08091750282602DC0C130FDE5DF07DE
:1023F00009F475C008F45DC0C230DD4509F072C053
:1024000080E06EC080917402816003C0809174028C
:1024100080618093740266C08091740211C08091C3
:1024200075028260809375025DC080917402806243
:10243000F0CF809174028064ECCF80917402886048
:102440008460E7CF8160EECF809174028E7FE1CF10
:10245000809174028D7FDDCF80917402877FD9CF08
:102460008091750218C0809175028D7FDBCF8091BD
:1024700074028F7ECECF809174028F7DCACF8091FF
:1024800074028F7BC6CF80917402877F8B7FC1CF10
:10249000809175028D7F8E7FC5CF8091740282FB03
:1024A000222720F991E0922790FB82F990FB83F993
:1024B000B0CF80917502982F909591708E7F892B67
:1024C00090FB81F9AFCF0E943B188091740287FB8B
:1024D000222720F991E0922790FB87F99ACF81E09B
:1024E0000E94871F80917402909175020E94091FBB
:1024F0000E943B1880E001C081E0DF91CF910895F8
:10250000CF93DF9386319C4541F5EB010E94071E76
:10251000982F8A812091000130910101882379F060
:102520009A7A81E009F480E08093AA01911102C0B7
:1025300069E201C065E3C9010E94CE1F0AC0809113
:10254000AA01811102C069E201C065E3C9010E94CC
:10255000D01F0E94581E80E001C081E0DF91CF9122
:1025600008959093B0018093AF010895E091AF0179
:10257000F091B001309721F00190F081E02D0994A5
:1025800080E00895EF92FF920F931F93CF93DF9314
:10259000E091AF01F091B0013097B1F18C01028070
:1025A000F381E02D09958091370282FF2DC080FFD5
:1025B00004C08DEA99E00E944E0AE80118E087EA1B
:1025C000E82E89E0F82E8091370280FF0BC08881C9
:1025D0001F928F93FF92EF920E94E70A0F900F9045
:1025E0000F900F90115021961111EDCF809137026D
:1025F00080FF0AC085EA99E0DF91CF911F910F918A
:10260000FF90EF900C944E0ADF91CF911F910F91A4
:10261000FF90EF900895E091AF01F091B0013097F5
:1026200039F022E0DC012C930480F581E02D09943F
:1026300008952091AD013091AE012817390771F04E
:102640009093AE018093AD01E091AF01F091B001A4
:10265000309721F00680F781E02D099408952091AC
:10266000AB013091AC012817390771F09093AC01A0
:102670008093AB01E091AF01F091B001309721F070
:102680000084F185E02D0994089585B7806885BFA1
:1026900085B7806885BF089508950C944C130C94F9
:1026A0004D130C944C130C944C130E9445130E9430
:1026B00051130C944F1381E008950C945B130E9406
:1026C0005A200E94A70E0E94C1200C945313CF934E
:1026D000C82F8091370282FF1EC080FF04C086ECA5
:1026E00099E00E944E0A8091370280FF0CC01F9231
:1026F000CF9381EC99E09F938F930E94E70A0F900C
:102700000F900F900F908091370280FF04C08FEBE5
:1027100099E00E944E0A8C2FCF910C94C40B7F92AB
:102720008F929F92AF92BF92CF92DF92EF92FF92E1
:102730000F931F93CF93DF93CDB7DEB72A970FB6D2
:10274000F894DEBF0FBECDBF0E94F90E0E945D134C
:10275000811111C08FEF89838A831B820E946320BD
:102760008160782F9D838C8349815A816B818D8113
:102770000E943F144FC042EBA42E41E0B42E00E073
:1027800010E0702E802F0E944A0E6C01F50181909E
:1027900091905F01882699268114910431F40F5F8E
:1027A0001F4F0530110569F7D5CF8091370281FDA4
:1027B0000E94530E80E0EE24E394F12C94012E212C
:1027C0003F21232B09F18E837F82CE20DF2081E001
:1027D000CD2809F480E088870E9463208160782FEB
:1027E0009A8789874E815F8168858A850E943F1418
:1027F000000F111FF801EE54FE4F80819181E826F1
:10280000F926F182E08206C08F5FEE0CFF1C8D304E
:10281000A9F6C5CF0E94D5220E94B6129091B101AF
:102820008917C9F00E94B6128093B1012A960FB69B
:10283000F894DEBF0FBECDBFDF91CF911F910F91F6
:10284000FF90EF90DF90CF90BF90AF909F908F90D0
:102850007F900C9467132A960FB6F894DEBF0FBED4
:10286000CDBFDF91CF911F910F91FF90EF90DF903F
:10287000CF90BF90AF909F908F907F900895CF930F
:10288000DF93CDB7DEB72B970FB6F894DEBF0FBE40
:10289000CDBF4F83588769877A878B87DE01119672
:1028A00086E0FD0111928A95E9F785E0FE013796F1
:1028B00001900D928A95E1F749815A816B817C8163
:1028C0008D819E810E94F41A2B960FB6F894DEBF7C
:1028D0000FBECDBFDF91CF910895FC018081918122
:1028E0000E94C81D0895CF93882309F4A9C0C82F5A
:1028F0008238C1F40E94B61281FDA2C069E38091C2
:102900000001909101010E94CE1F0E94581E2FEFDE
:1029100081EE94E0215080409040E1F700C000003B
:1029200069E319C0833801F50E94B61280FD88C0A2
:1029300063E580910001909101010E94CE1F0E94E9
:10294000581E2FEF81EE94E0215080409040E1F737
:1029500000C0000063E580910001909101010E9498
:10296000D01FCF910C94581E8438C1F40E94B61227
:1029700082FD66C067E480910001909101010E9490
:10298000CE1F0E94581E2FEF81EE94E02150804010
:102990009040E1F700C0000067E4DDCF8CEF8C0FC2
:1029A000813AF8F48C2F0E94E127811149C06C2FE5
:1029B00080910001909101010E94981F882349F0A5
:1029C0006C2F80910001909101010E94D01F0E9404
:1029D000581E6C2F80910001909101010E94CE1F22
:1029E000C0CF80E28C0F883048F4C77081E001C00E
:1029F000880FCA95EAF70E940A1EB3CFEBE5EC0FE9
:102A0000E33040F4F0E0EA57FE4F808190E0CF9150
:102A10000C941913E8E5EC0FE73150F4F0E0EE0FF9
:102A2000FF1FE85AFE4F80819181CF910C942F13A4
:102A3000C03F30F08C2F0E945B21CF910C94482234
:102A4000CF910895882309F464C0823879F40E94F4
:102A5000B61281FF5EC069E380910001909101018F
:102A60000E94CE1F0E94581E69E310C08338B1F443
:102A70000E94B61280FF4DC063E5809100019091E5
:102A800001010E94CE1F0E94581E63E58091000143
:102A9000909101010E94D01F0C94581E843879F443
:102AA0000E94B61282FF35C067E4809100019091C8
:102AB00001010E94CE1F0E94581E67E4E7CF9CEFE1
:102AC000980F913A10F4682FE1CF90E2980F983068
:102AD00050F4877091E001C0990F8A95EAF7892F29
:102AE0000E94101ED9CF9BE5980F933020F480E010
:102AF00090E00C94191398E5980F973120F480E03A
:102B000090E00C942F13803F20F00E94C3210C947E
:102B100048220895CF93C82F0E947314C93349F4F3
:102B20002FEF87EE93E0215080409040E1F700C006
:102B300000008C2FCF910C942215882321F00E9445
:102B40000A1E0C94581E0895882321F00E94101E1E
:102B50000C94581E0895CF92DF92EF92FF920F933C
:102B60001F93CF93DF937C01062FC72FFC011581A4
:102B700012951F70D281D1110E942A1E0E94001E40
:102B8000882399F0DD2389F08C2F807F803421F019
:102B900080E2800F883048F082E00E94A21E0E94EE
:102BA000001E91E0D82ED92601C0D12CCC2EC29483
:102BB0008FE0C8228C2D90E0FC01EA5AFF4F0C9464
:102BC000F9308C2F807FCF70882311F0C295C07FA1
:102BD000DD2399F0CC2309F48DC180E2800F883089
:102BE00010F0011104C08C2F0E940A1E03C08C2F0C
:102BF0000E941D1E0E94581E7DC1802F0E9422151A
:102C0000CC2309F49CC180E2800F883010F00111C0
:102C100004C08C2F0E94101E03C08C2F0E94231E04
:102C20000E94581E8CC18C2F807FCF70803211F093
:102C3000C295C07F002319F00130C9F022C0DD2306
:102C400071F0112341F0113031F40E943D1E8C2BA4
:102C50000E94451E74C10E943D1E8C2B1DC0112375
:102C600019F0113009F46BC10E944E1E25C0DD23FE
:102C700021F0163008F063C10EC0153008F05FC1B6
:102C80001BC0DD2361F0112331F0F701858180FF46
:102C900031C18F7085838C2F0E949D1550C11123E7
:102CA00059F0093309F037C1FFEF27EE83E0F15007
:102CB00020408040E1F72DC18C2F0E94A4153FC118
:102CC0008C2F86958695837019F0813061F037C11D
:102CD000DD2321F0802F9C2F937002C080E090E0D4
:102CE0000E94191334C1DD2321F0802F9C2F937093
:102CF00002C080E090E00E942F1329C1802FDD23C5
:102D000019F00E945B2102C00E94C3210E94482248
:102D10001EC18C2F837009F045C0D11114C1402F02
:102D2000429546954770440F440F602F6F70862F71
:102D300090E0A0E0B0E0042E04C0880F991FAA1F05
:102D4000BB1F0A94D2F704FF10C00FE010E020E090
:102D500030E004C0000F111F221F331F4A95D2F725
:102D6000009510952095309503C000E010E0980183
:102D7000C695C695C370BC01CD01602B712B822B0B
:102D8000932BC23049F058F4C13019F00E94451C11
:102D9000DAC00E94331CD7C00E94571CD4C00E94C6
:102DA000311CD1C0DD2319F08C2F817001C08695B4
:102DB000882309F4C8C0402F429546954770440FB8
:102DC000440F602F6F70862F90E0A0E0B0E0042EDB
:102DD00004C0880F991FAA1FBB1F0A94D2F704FFD3
:102DE00010C00FE010E020E030E004C0000F111F21
:102DF000221F331F4A95D2F70095109520953095E4
:102E000003C000E010E09801C695C695C370BC01F0
:102E1000CD01602B712B822B932BC23049F058F4DB
:102E2000C13019F00E940A1D8EC00E94F81C8BC090
:102E30000E941C1D88C00E946B1C85C0CF70DD23C2
:102E400039F08C2F0E94911C802F0E949D157BC011
:102E5000802F0E94A4158C2F0E94B21C74C0023FC8
:102E600001F128F4003F41F0013FA1F03FC0033FD2
:102E7000F9F0043F39F13AC0DD2341F0153008F094
:102E80005EC08C2F8F710E94D71C59C0163008F07D
:102E900056C0F7CFDD2339F08C2F8F710E94911C23
:102EA0004EC0DD23C9F38C2F8F710E94B21C47C026
:102EB000DD2329F08C2F8F710E947C1C40C00E9462
:102EC000771C3DC0DD2349F0CF718C2F0E94911CEF
:102ED00063E08C2F0E948D1E32C081E00E94A21EF2
:102EE000123068F182E00E94A21E29C0DD2331F079
:102EF000112391F2802F0E94731421C0112399F2A3
:102F0000093349F49FEFE7EEF3E09150E040F040E1
:102F1000E1F700C00000802F0E94221510C04C2F46
:102F20004F70602FC7010E943C0C0E94A21B0FC073
:102F30004C2F4F70602FC7010E943F0C08C088EFD4
:102F40008C0D843020F40E94B6120E94C40BDD2048
:102F5000C9F00E94FC1D80FD15C0F70112820E947D
:102F6000F61D0E94911CC7010E94E3170E94F61DE6
:102F7000DF91CF911F910F91FF90EF90DF90CF9055
:102F80000C94B21CDF91CF911F910F91FF90EF90A5
:102F9000DF90CF9008950F931F93CF93DF93EC01B1
:102FA000688179818A810E94D31D8C010E942E1D27
:102FB0000E941F1CB801CE010E94AB15DF91CF917A
:102FC0001F910F910895CF93DF93EC019881898130
:102FD0002B813C81232B31F08F3F31F481E09F3FE7
:102FE00019F403C081E001C080E080FD19C0CE016A
:102FF0000E94DD0B81110CC00E94001E882381F00D
:103000008A81882369F082E0DF91CF910C94A21E1F
:10301000CE010E94CB17CE01DF91CF910C94980B7B
:10302000DF91CF910895882321F00E941D1E0C94FA
:10303000581E0895882321F00E94231E0C94581EC8
:1030400008950E942A1E0E943A1E0E94581E0E9445
:10305000F4230E94482280E090E00E94191380E04F
:1030600090E00C942F1380910001909101010E9437
:10307000D21F0C9421180E941A1E0C943318E92FA9
:10308000E295EF704E2F50E0FA013297EE30F105E5
:10309000B0F4EA59FF4F0C94F930803F91F018F4E6
:1030A000883E68F40EC0843F51F40BC0883E48F05F
:1030B000813F29F406C093FB882780F9089580E0BA
:1030C000089581E008950E94C81D0E943F18089548
:1030D000CF93DF9300D000D01F92CDB7DEB70F9013
:1030E0000F900F900F900F90DF91CF910895CF9395
:1030F000DF9300D000D000D0CDB7DEB726960FB654
:10310000F894DEBF0FBECDBFDF91CF9108951F931E
:10311000CF93DF93C091BD0116E08091BE01C81727
:1031200099F0D0E01C9FF0011D9FF00D1124E15497
:10313000FE4F4081518162817381848195810E941B
:1031400077182196C770E9CFDF91CF911F9108952D
:103150004091EF015091F0016091F1017091F20105
:103160008091F3019091F4010C9477180F931F93C1
:10317000CF93DF938091F40182958F7009F05DC049
:103180008091F101882309F458C08091BD0110910C
:10319000BE016091EF017091F001C091F201D091F8
:1031A000F30191E06F3F09F090E0292F06E08117CD
:1031B00009F443C0209721F07F3F21F030E003C0A5
:1031C00031E001C0322F90E030FD34C0089FF001A3
:1031D000099FF00D1124DF01A154BE4F11963C91BF
:1031E0001197371327C03C91361324C012963C9197
:1031F000129731111FC013964D915C9114974C1B7F
:103200005D0B483C5105B0F48091F4018F708061F2
:103210008093F401EC53FE4F80818F708061808336
:103220008FEE91E00E94E317DF91CF911F910F91F4
:103230000C94871801968770BACFDF91CF911F91B8
:103240000F9108959F92AF92BF92CF92DF92EF922B
:10325000FF920F931F93CF93DF93CDB7DEB76197A4
:103260000FB6F894DEBF0FBECDBF8C0185E0F8012C
:10327000DE011D9601900D928A95E1F7F8014081DB
:103280005181E2809091EF016091F0012091F20173
:103290003091F3012115310531F06F3F31F481E0B8
:1032A0009F3F19F403C081E001C080E0F82FF17066
:1032B0009F2E80FD46C1F801A380B4808FEEC82EFA
:1032C00081E0D82EF090F101F501E21BF30BFF2015
:1032D00009F4DFC08091F401E83CF10508F09BC0DF
:1032E000282F207F09F052C0561313C0491311C074
:1032F000FE2CE1100EC08F7080618093F4010E945B
:10330000A818C6010E94E3178091F401F801858393
:1033100058C1AB2831F05F3F31F481E04F3F19F4E1
:1033200003C081E001C080E080FD03C081E08E2504
:1033300002C080E090E0F82FF170FF2E80FF1CC0EB
:103340008091BD012091BE0136E0821709F417C1BA
:1033500090E0389FF001399FF00D1124E154FE4FA9
:103360006181561306C06081461303C06281E61274
:1033700003C001968770E9CFFE2CEE2009F421C12D
:103380008091F40181608093F4015AC0561306C005
:10339000491304C0E11002C0F8019FC04D875E8749
:1033A0008D859E850E946318882379F1EE2069F14E
:1033B0002091F401822F82958F7090E0029774F033
:1033C0008091EF019091F00198878F831986BB86D9
:1033D000AA862C87CE0107960E94E31786E0F801A3
:1033E000AFEEB1E001900D928A95E1F70E94B61818
:1033F0000E94A8180DC0561729F14D875E878D854C
:103400009E850E94631881112CC0C8010E94E31799
:10341000FF24F394D6C0282F207F69F77A2DB98A2C
:10342000A88A6E2D89890E9468188FEE91E00E940B
:10343000E31786E0F60111928A95E9F70E94A81831
:10344000F12CBFC04913D9CFE110D7CFF801858344
:10345000C8010E94E31786E0F60111928A95E9F708
:10346000B0C0EE2091F22091F401822F82958F70EE
:1034700090E002970CF4B2CF8091EF019091F001AF
:103480009A8389831B82BD82AC822E83CE010196F2
:10349000A3CFE83CF10508F047C0FE2CEE2009F46C
:1034A000B4CF561330C049132EC02091F40120FD33
:1034B00021C0822F82958F70482F50E04115510511
:1034C000C9F0F80125834F30510541F08F5F982FE7
:1034D0009295907F822F8F70892B8583C8010E94DF
:1034E000E31786E0F801AFEEB1E001900D928A9506
:1034F000E1F742C086E0F801AFEEB1E001900D9235
:103500008A95E1F75EC04D875E878D859E850E9416
:103510006318811163CF8091F40181608093F4017D
:10352000C8010E94E3174DC07A2DB98AA88A6E2D72
:1035300089890E94681886E0F60111928A95E9F758
:103540001BC0EE2009F461CF4D875E878D859E8577
:103550000E946318F82E882309F457CF86E0F801FB
:10356000AFEEB1E001900D928A95E1F78FEE91E018
:103570000E946D140E94B6180E94A81822C04D87A0
:103580005E878D859E850E94C81D292F22952F70EC
:10359000223028F49F7039F0811105C00BC024300F
:1035A00028F49F7049F4805E883020F0C8010E94A2
:1035B000E3179F2CF92C05C0F8019581907F99F7AE
:1035C000F9CF8F2D61960FB6F894DEBF0FBECDBF39
:1035D000DF91CF911F910F91FF90EF90DF90CF90EF
:1035E000BF90AF909F9008951F93CF93DF93CDB777
:1035F000DEB72C970FB6F894DEBF0FBECDBF4F835A
:10360000588769877A878B879C87CE0107960E94A7
:1036100022198823D1F09F8188852A853B85232B19
:1036200031F08F3F31F481E09F3F19F403C081E016
:1036300001C080E080FD47C04F81588569857A854B
:103640008B859C850E9477183EC086E0FE013796E8
:10365000DE01119601900D928A95E1F7FF81E885D0
:103660006A857B856115710531F0EF3F31F481E0AA
:10367000FF3F19F403C081E001C080E080FD23C05A
:103680002091BE0130E0C9010196877099274091D1
:10369000BD0150E084179507F1F1F983EA837D833A
:1036A0006C8396E0929FD001939FB00D1124A1549A
:1036B000BE4FFE01319601900D929A95E1F78093ED
:1036C000BE010E94871816E08091BD019091BE0155
:1036D000891771F1189FC001112481549E4F0E94D7
:1036E0002219882329F1E091BD011E9FF0011124C8
:1036F000E154FE4F408151816281738184819581C3
:103700000E9477188091BD0190E0019687709927FB
:103710008093BD01D9CF0E943B181092BE01109238
:10372000BD01EFEEF1E086E0DF011D928A95E9F739
:103730002C960FB6F894DEBF0FBECDBFDF91CF91B0
:103740001F910895EF92FF920F931F93CF93DF93F2
:103750008C01892B09F46CC0F12CEE24E394E80170
:103760002196F8018491843740F4843008F051C0E8
:10377000813081F0823019F15BC0853709F444C093
:10378000A8F19CE7980F903708F052C08F770E94FD
:10379000221541C00E5F1F4FFE01849190E2980FE9
:1037A000983050F48770FE2D01C0FF0F8A95EAF71C
:1037B0008F2F0E942D1E14C00E9473142DC00E5F07
:1037C0001F4FFE01849190E2980F983060F487704B
:1037D000FE2D01C0FF0F8A95EAF78F2F0E94331E3E
:1037E0000E94581E19C00E94221516C00E5F1F4F5E
:1037F000FE01C491CC2381F08FE99FE00197F1F79E
:1038000000C00000C150F6CF0E5F1F4FFE01F490C4
:1038100003C00E9473148E018F2D882309F49FCF5B
:10382000EFE9FFE03197F1F700C000008150F5CFDC
:10383000DF91CF911F910F91FF90EF900895089520
:1038400008950C94201C0C94211C0E94231C60934E
:1038500026027093270280932802909329020C94E9
:1038600021180C94251C0F931F9300912602109190
:1038700027022091280230912902602B712B822B84
:10388000932B1F910F910C94251C0F931F93009164
:1038900026021091270220912802309129026023EC
:1038A0007123822393231F910F910C94251C0F9356
:1038B0001F93009126021091270220912802309137
:1038C000290260277127822793271F910F910C945B
:1038D000251C0C94201C0E94691C6093220270938A
:1038E000230280932402909325020C94211860E017
:1038F00070E0CB010C946B1C0F931F9341E050E0E0
:1039000060E070E08A019B0104C0000F111F221FBC
:10391000331F8A95D2F7C901B8011F910F910C94FA
:103920006B1C0F931F9341E050E060E070E004C017
:10393000440F551F661F771F8A95D2F78091220288
:1039400090912302A0912402B09125028A019B014B
:10395000082B192B2A2B3B2BC901B8011F910F9162
:103960000C946B1C0F931F9341E050E060E070E0FB
:1039700004C0440F551F661F771F8A95D2F74095E4
:103980005095609570958091220290912302A091AC
:103990002402B09125028A019B01082319232A23BE
:1039A0003B23C901B8011F910F910C946B1C0F931D
:1039B0001F9341E050E060E070E004C0440F551FE9
:1039C000661F771F8A95D2F7809122029091230279
:1039D000A0912402B09125028A019B010827192792
:1039E0002A273B27C901B8011F910F910C946B1C2A
:1039F0000F931F9300912202109123022091240221
:103A000030912502602B712B822B932B1F910F91EC
:103A10000C946B1C0F931F930091220210912302B0
:103A20002091240230912502602371238223932365
:103A30001F910F910C946B1C0F931F930091220206
:103A400010912302209124023091250260277127D2
:103A5000822793271F910F910C946B1C08952DE0E2
:103A6000929F800D1124E82FE695E695E6958770E4
:103A700051E001C0550F8A95EAF785E0E89FF00113
:103A80001124EB50FE4F20E030E070E04081CB018C
:103A9000022E02C0969587950A94E2F7817081956F
:103AA00084278523842781932F5F3F4F253031055D
:103AB00069F708952DE0929F800D1124682F669577
:103AC00066956695982F977085E0689FB0011124E0
:103AD00040E050E080E0FB01E40FF51FEB50FE4FAB
:103AE000208130E0092E02C0369527950A94E2F72E
:103AF00021703327042E01C0220F0A94EAF7822B8B
:103B00004F5F5F4F4530510531F70895BF92CF9217
:103B1000DF92EF92FF920F931F93CF93DF938C016D
:103B2000C0902202D0902302E0902402F09025025F
:103B30008091260290912702A0912802B09129023B
:103B4000C82AD92AEA2AFB2ACFE1D0E0D701C60148
:103B50000C2E04C0B695A795979587950A94D2F731
:103B600080FD04C0219790F7B12C07C0BC2EB8018E
:103B70008C2F0E945B0C0197A9F38B2DDF91CF91C5
:103B80001F910F91FF90EF90DF90CF90BF9008951D
:103B9000CF93DF93EC010E94861DBE010E945B0C57
:103BA000DF91CF9108951F93CF93DF93EB01909115
:103BB000BC01992321F0CB010E94C81D13C08823AA
:103BC00049F0CB010E94861D182F682FCE010E945C
:103BD0002F1D04C0CB010E945A1D182FBE01812F3A
:103BE0000E945B0CDF91CF911F91089580912A0272
:103BF000859585958595089580912A028770089509
:103C000090912A02977081E009F480E008958091F4
:103C10003602089590913602892B809336020895DA
:103C2000809590913602892380933602089580937F
:103C30003602089510923602089590913502892B2C
:103C40008093350208958095909135028923809361
:103C50003502089510923502089590913402892B0F
:103C60008093340208958095909134028923809343
:103C70003402089510923402089580912B02089521
:103C800008950C94401E0C94411E90912B0298179D
:103C900021F080932B020C94431E089580912B02F7
:103CA000882329F010922B0280E00C94431E089583
:103CB000E0910001F0910101809136028083E09152
:103CC0000001F0910101908180913502892B808360
:103CD000E0910001F0910101908180913402892BE3
:103CE000808380912B02882381F0E0910001F09184
:103CF00001019081892B80838091000190910101C5
:103D00000E948C1F81110E944E1E80910001909193
:103D100001010C94C2120C94401E98E0899F9001FE
:103D20001124262B20932A020E94911C80912A02A2
:103D30008595859585950C948B1E10922A0280E0BE
:103D40000C948B1E20912A028095822380932A0254
:103D5000982F977079F430E0482F082E000C550BFF
:103D60002417350739F08595859585950E94B21CF5
:103D70000C949D1E08959093A3018093A201089531
:103D80008295982F937344E0949F900111248C7C2A
:103D900086958695282B822F8575880F2A7A2695F9
:103DA000822B0895CF93DF93D92F0E94C01EC82F76
:103DB0008D2F0E94C01E2C2F30E0322F2227A90108
:103DC000482BCA01DF91CF91089580E090E00E94D6
:103DD0001B3121E08C3E9E4F09F020E0822F089598
:103DE00082E090E00C94133183E090E00C94133166
:103DF000CF9384E090E00E941331C82F81E290E0DD
:103E00000E9413312C2F30E0A901582BCA01CF9109
:103E10000895CF93C92F682F84E090E00E9421314C
:103E20006C2F81E290E0CF910C942131AB01BC0169
:103E30008FE090E00C943331AB01BC0183E190E062
:103E40000C94333160E070E0CB010C941C1F60E0F7
:103E500070E0CB010E94161F0C94221F6CEE7EEFC7
:103E600080E090E00E943F3160E082E090E00E94BC
:103E7000213160E083E090E00E942131109226021F
:103E800010922702109228021092290260E084E02A
:103E900090E00E94213160E081E290E00E942131B7
:103EA00060E085E090E00E94213160E086E090E0F3
:103EB0000E9421316FEF87E090E00E94213140E0C5
:103EC00050E0BA0188E090E00E94333160E08DE07C
:103ED00090E00E94213140E050E0BA0188E190E09A
:103EE0000E94333160E087E190E00E94213140E0A0
:103EF00050E0BA018CE190E00E94333160E080E252
:103F000090E00E9421310C94271F0C942E1F682FE3
:103F10008EE090E00C942131FC01329697E080E035
:103F2000915029F021912223D9F38F5FF9CF089581
:103F3000662349F0FC01329608962191621729F018
:103F4000E817F907D1F780E0089581E008959C0112
:103F5000FC0132969FEF80E04191461789F09F3F28
:103F600019F4411101C0982F8F5F8630A9F79F3F48
:103F700039F0F901E90FF11D97FDFA956283089573
:103F800008959C012A5F3F4FFC014281461301C006
:103F90001282019682179307B9F708950C94A71F10
:103FA0000C94C11F029626E0FC0111922A95E9F7B4
:103FB000089508950C94D91F0C94D91FCF930E9493
:103FC000DC1F0E94F90E0E94DA1FC0E08C2F0E94B5
:103FD0004A0E892B29F4CF5FC530C1F780E001C0BC
:103FE00081E0CF9108950C94D91F0C94F31F0E9487
:103FF000F51F80917A02843049F11092380220E452
:1040000088E190E00FB6F894A895809360000FBE09
:104010002093600080E00E94C40B0E94F51F83B7CC
:10402000817F846083BF83B7816083BF78948895E4
:1040300083B78E7F83BF0FB6F894A89580916000F8
:10404000886180936000109260000FBE08950C9408
:10405000D91F0E943B180E94B6120E94C40B0C94F8
:1040600027201F920F920FB60F9211248F939F93C8
:10407000AF93BF9380913802811113C08091700279
:1040800090917102A0917202B09173024196A11DAC
:10409000B11D8093700290937102A0937202B0934D
:1040A0007302BF91AF919F918F910F900FBE0F90B0
:1040B0001F90189582E084BD93E095BD9AEF97BD5F
:1040C00080936E0008952FB7F894809170029091BC
:1040D0007102A0917202B09173022FBF08952FB7A1
:1040E000F8946091700270917102809172029091C7
:1040F00073022FBF08959C014FB7F894809170020E
:1041000090917102A0917202B09173024FBF821B15
:10411000930B089578941F920F920FB60F9211246B
:104120008F939F93AF93BF93809170029091710290
:10413000A0917202B09173020196A11DB11D8093EE
:10414000700290937102A0937202B0937302BF91B8
:10415000AF919F918F910F900FBE0F901F90189568
:1041600087E797E790930108809300089AE088E139
:104170000FB6F894A895809360000FBE90936000EE
:10418000FFCF0E94E51E811102C00E94851F0E9480
:10419000F01E809337020E94F81E90937502809360
:1041A00074020E94F41E682F70E080E090E00C948E
:1041B000311C8091400280FF0BC06091070185E0B7
:1041C000689FB001112475956795759567952BC00B
:1041D00081FF09C06091070185E0689FB00111244B
:1041E0007595679520C082FF07C06091070185E043
:1041F000689FB001112417C090913F029923D1F01C
:1042000060910601961788F72091070185E0289FA5
:1042100090011124929FA001939F500D112470E0F2
:10422000CA010E94E5306038710540F461157105DE
:1042300019F406C065E070E0862F08958FE70895B1
:1042400081E008958091400280FF08C060910301E1
:1042500070E0759567957595679521C081FF06C0DB
:104260006091030170E07595679519C082FF04C0E5
:104270006091030170E010C090913F02992399F082
:10428000609102019617A0F780910301899FC001F8
:10429000112470E00E94E5306038710540F461152A
:1042A000710519F406C061E070E0862F08958FE76C
:1042B000089581E00895803F21F40E94D9208195DE
:1042C00004C0813F29F40E94D920809344020895BC
:1042D000823F21F40E94D920819504C0833F29F4B4
:1042E0000E94D920809343020895893F19F40E94C7
:1042F000222105C08A3F31F40E94222181958093BA
:10430000450208958B3F21F40E942221819504C02B
:104310008C3F29F40E942221809346020895843F15
:1043200021F480914202816017C0853F21F4809181
:104330004202826011C0863F21F480914202846073
:104340000BC0873F21F480914202886005C0883FFE
:1043500031F48091420280618093420208958D3F42
:1043600021F48091400281600BC08E3F21F4809146
:104370004002826005C08F3F29F480914002846032
:10438000809340020895803F39F48091440287FF72
:104390006CC01092440269C0813F29F480914402AC
:1043A0001816BCF362C090914302823F29F497FF34
:1043B0005CC01092430259C0833F19F41916CCF324
:1043C00054C0893F41F48091450218160CF04DC04D
:1043D000109245024AC08A3F29F48091450287FF26
:1043E00044C0F6CF8B3F39F48091460287FF3DC031
:1043F000109246023AC08C3F29F48091460218166A
:10440000BCF333C0843F21F4809142028E7F17C0F9
:10441000853F21F4809142028D7F11C0863F21F4B7
:10442000809142028B7F0BC0873F21F48091420232
:10443000877F05C0883F31F4809142028F7E809350
:10444000420213C08D3F21F4809140028E7F0BC049
:104450008E3F21F4809140028D7F05C08F3F29F46B
:10446000809140028B7F80934002809143028111B2
:104470000EC08091440281110AC0809145028111D1
:1044800006C080914602811102C010923F02089539
:104490008091370283FF7EC080E09AE00E944E0A3E
:1044A000809142021F928F938BEF99E09F938F939D
:1044B0000E94E70A89EF99E00E944E0A8091430228
:1044C000282F082E000C330B3F938F9386EF99E033
:1044D0009F938F930E94E70A84EF99E00E944E0A0F
:1044E00080914402282F082E000C330B3F938F93AA
:1044F00081EF99E09F938F930E94E70A8FEE99E0F6
:104500000E944E0A80914502282F082E000C330B82
:104510003F938F938CEE99E09F938F930E94E70ACD
:104520008AEE99E00E944E0A80914602282F082EBA
:10453000000C330B3F938F9387EE99E09F938F93FB
:104540000E94E70A84EE99E00E944E0A80913F02A1
:104550001F928F9381EE99E09F938F930E94E70AB9
:104560008FED99E00E944E0A809140021F928F9336
:104570008CED99E09F938F930E94E70A89ED99E073
:104580000E944E0A8DB79EB74C960FB6F8949EBF08
:104590000FBE8DBF81E492E00E940B130E94632046
:1045A00090933E0280933D020895CF93DF9300D015
:1045B00000D000D0CDB7DEB786E0E1E4F2E0DE0166
:1045C000119601900D928A95E1F780914302811135
:1045D00005C080914402882309F47AC080913B028F
:1045E00090913C020E947B20AC0190913F02992364
:1045F00039F02091080130E02417350758F068C0E1
:10460000209109018AE0289F900111242417350781
:1046100018F05EC09F3F19F09F5F90933F02109289
:1046200045021092460280914302181624F40E941B
:10463000D920809343028091430287FF05C00E94E6
:10464000D92081958093430280914402181624F466
:104650000E94D920809344028091440287FF05C0C4
:104660000E94D920819580934402309143023323E4
:10467000E1F0209144022223C1F045EB3403C00154
:104680001124992319F09093430203C081E0809391
:10469000430235EB2303C0011124992319F09093B1
:1046A000440203C081E0809344020E94482280912A
:1046B0003D0290913E0290933C0280933B0286E043
:1046C000FE013196A1E4B2E001900D928A95E1F7E6
:1046D00080914502811105C080914602882309F42A
:1046E0007AC08091390290913A020E947B20AC01FD
:1046F00090913F02992339F02091040130E0241772
:10470000350758F068C0209105018AE0289F900184
:1047100011242417350718F05EC09F3F19F09F5FE2
:1047200090933F02109243021092440280914502FE
:10473000181624F40E94222180934502809145029C
:1047400087FF05C00E9422218195809345028091B8
:104750004602181624F40E9422218093460280917A
:10476000460287FF05C00E94222181958093460260
:10477000309145023323E1F0209146022223C1F01B
:1047800045EB3403C0011124992319F0909345029D
:1047900003C081E08093450235EB2303C00111245F
:1047A000992319F09093460203C081E0809346025A
:1047B0000E94482280913D0290913E0290933A02DD
:1047C0008093390286E0FE013196A1E4B2E00190C7
:1047D0000D928A95E1F726960FB6F894DEBF0FBECC
:1047E000CDBFDF91CF910895E1E4F2E086E0DF01F3
:1047F0001D928A95E9F710923F02109240020895A7
:1048000083E29CE00E944E0A1F9281E08F931F92E8
:1048100085E08F9385ED9BE09F938F930E94E70A3D
:104820000F900F900F900F900F900F90089583307E
:10483000E9F128F4813061F0823009F10895853082
:1048400009F462C008F449C0863009F474C00895C0
:1048500080910901262F30E0280F311D2F3F3105AF
:1048600024F4680F6093090103C08FEF809309015E
:10487000809109011F928F938EE09BE072C080911E
:104880000801262F30E0280F311D2F3F310524F479
:10489000680F6093080103C08FEF80930801809137
:1048A00008011F928F938CEF9AE05BC08091070103
:1048B000262F30E0280F311D2F3F310524F4680FDB
:1048C0006093070103C08FEF809307018091070178
:1048D0001F928F9389EE9AE044C080910601262FA3
:1048E00030E0280F311D2F3F310524F4680F60930D
:1048F000060103C08FEF80930601809106011F928D
:104900008F9384ED9AE02DC080910301262F30E033
:10491000280F311D2F3F310524F4680F60930301E8
:1049200003C08FEF80930301809103011F928F9347
:104930008BEB9AE016C080910201262F30E0280F01
:10494000311D2F3F310524F4680F6093020103C02D
:104950008FEF80930201809102011F928F9380EA72
:104960009AE09F938F930E94E70A0F900F900F9009
:104970000F900895833081F128F4813059F082300E
:10498000D1F00895853009F449C0B8F1863009F4B2
:1049900056C0089580910901681720F4861B809302
:1049A000090102C010920901809109011F928F93A1
:1049B00081E99AE054C080910801681720F4861BB1
:1049C0008093080102C010920801809108011F9293
:1049D0008F938FE79AE043C080910701681720F416
:1049E000861B8093070102C0109207018091070186
:1049F0001F928F938CE69AE032C08091060168176F
:104A000020F4861B8093060102C01092060180915B
:104A100006011F928F9387E59AE021C080910301E0
:104A2000681720F4861B8093030102C010920301D3
:104A3000809103011F928F938EE39AE010C08091C2
:104A40000201681720F4861B8093020102C01092B5
:104A50000201809102011F928F9383E29AE09F935B
:104A60008F930E94E70A0F900F900F900F90089578
:104A7000CF93C82F1F928F9388E29DE09F938F93CF
:104A80000E94E70A81E090E0A0E0B0E0BC01CD0127
:104A900004C0660F771F881F991FCA95D2F70E941E
:104AA000311C0F900F900F900F90CF910C943B18EA
:104AB000CF93DF938B3109F4EAC108F08BC18B30BF
:104AC00009F4AEC108F065C1863009F4ACC120F428
:104AD000853009F4BAC15DC2873009F4BDC18830A0
:104AE00009F057C28FE392E10E944E0A80E991E1FA
:104AF0000E944E0A0E94F41E1F928F938DE891E14E
:104B00009F938F930E94E70A8BE891E10E944E0ADF
:104B10000E94F01EC82F88E791E10E944E0A1F9262
:104B2000CF9383E791E19F938F930E94E70A81E7F8
:104B300091E10E944E0A87E691E10E944E0A8C2F75
:104B400081701F928F9384E691E19F938F930E94CF
:104B5000E70A82E691E10E944E0A88E591E10E940F
:104B60004E0AC1FB882780F91F928F9385E591E15A
:104B70009F938F930E94E70A83E591E10E944E0A7A
:104B800087E491E10E944E0AC2FB882780F91F92B8
:104B90008F9384E491E19F938F930E94E70A82E4CC
:104BA00091E10E944E0A89E391E10E944E0AC3FB03
:104BB000CC27C0F91F92CF9386E391E19F938F9307
:104BC0000E94E70A84E391E10E944E0A0E94F81EC7
:104BD000EC0180E291E10E944E0ADF93CF938BE1DA
:104BE00091E19F938F930E94E70A89E191E10E94EE
:104BF0004E0A80E091E10E944E0A8C2F81701F9234
:104C00008F938DEF90E19F938F930E94E70A8DB76A
:104C10009EB780960FB6F8949EBF0FBE8DBF8BEFE8
:104C200090E10E944E0A84EE90E10E944E0AC1FB80
:104C3000882780F91F928F9381EE90E19F938F9345
:104C40000E94E70A8FED90E10E944E0A8DEC90E100
:104C50000E944E0A8D2F81701F928F938AEC90E1F3
:104C60009F938F930E94E70A88EC90E10E944E0A7E
:104C700086EB90E10E944E0AD695D1701F92DF9389
:104C800083EB90E19F938F930E94E70A81EB90E181
:104C90000E944E0A8FE990E10E944E0AC2FB8827CB
:104CA00080F91F928F938CE990E19F938F930E94DC
:104CB000E70A8AE990E10E944E0A88E890E10E94A2
:104CC0004E0AC3FB882780F91F928F9385E890E1F5
:104CD0009F938F930E94E70A83E890E10E944E0A17
:104CE00089E790E10E944E0AC4FB882780F91F9251
:104CF0008F9386E790E19F938F930E94E70A84E762
:104D000090E10E944E0A82E690E10E944E0AC5FBA5
:104D1000882780F91F928F938FE590E19F938F935F
:104D20000E94E70A8DE590E10E944E0A81E490E13D
:104D30000E944E0AC6FB882780F91F928F938EE34C
:104D400090E19F938F930E94E70A8DB79EB780965C
:104D50000FB6F8949EBF0FBE8DBF8CE390E10E940A
:104D60004E0A84E390E10E944E0AC7FBCC27C0F9AB
:104D70001F92CF9381E390E19F938F930E94E70A64
:104D80008FE290E10E944E0A0F900F900F900F90CB
:104D900045C0803109F4A5C020F48E3009F48BC0E1
:104DA000F8C0863109F4B8C0893109F0F2C086E54F
:104DB0009EE00E944E0A8FE19EE00E944E0A87EF1D
:104DC0009DE00E944E0A81EC9DE00E944E0A86E919
:104DD0009DE084C08A32E1F060F4873209F4D5C0E6
:104DE00028F48E3108F4D5C08D51D0C0893269F1D4
:104DF000D0C0833448F48A3308F0C5C0853309F441
:104E0000C4C0883369F0C5C0833409F4BEC0C1C0D2
:104E10008EE292E10E944E0A0E94851FC1E0BEC050
:104E20008CE89EE05BC080913702817F8E7F80930B
:104E3000370285E69EE00E944E0A8AE292E10E94D5
:104E40004E0A81E080934802E9CF8EE092E10E9411
:104E50004E0A0E94CE0BE2CF80913702C82FC09538
:104E6000C170C0FB80F980933702CC2329F082E027
:104E700092E10E944E0A92C085EF91E10E944E0A93
:104E800080913702897F877F80933702C7CF9091C7
:104E9000370291FBCC27C0F981E0C827892FC0FBDE
:104EA00081F980933702CC2319F088EE91E129C073
:104EB0008AED91E113C09091370292FBCC27C0F9A3
:104EC00081E0C827892FC0FB82F980933702CC2369
:104ED00019F08BEC91E115C08BEB91E10E944E0A29
:104EE0009DCF9091370293FBCC27C0F981E0C82772
:104EF000892FC0FB83F980933702CC2351F08FEACE
:104F000091E10E944E0A80913702816080933702BE
:104F100045C082EA91E1E2CF88E89DE00E944E0A16
:104F20000E94B6121F928F938EE69DE09F938F93FF
:104F30000E94E70A809114011F928F9387E59DE0FC
:104F40009F938F930E94E70A809155021F928F933F
:104F500084E49DE09F938F930E94E70A0E946F2054
:104F60009F938F937F936F938DE29DE09F938F9399
:104F70000E94E70A8DB79EB742960FB6F8949EBF7F
:104F80000FBE8DBF4BCF895301C080E00E943825F2
:104F900045CF80EA91E10E944E0AC0E08C2FDF915C
:104FA000CF91089580E008950C94D2278E518A30D5
:104FB00030F4E82FF0E0E757FE4F8081089580E05D
:104FC0000895CF93C82F80914802813059F020F086
:104FD000823009F445C039C10E94071E823209F0AF
:104FE00036C104C00E94071E823261F48C2F0E94D9
:104FF000D427811104C08C2F0E9458252FC081E036
:1050000090E02CC08C2F0E94D227811126C0C43181
:10501000E1F070F4CB3081F0C031D1F40E94002473
:1050200080E29DE00E944E0A82E08093480215C013
:10503000C93259F0C83361F485E69EE00E944E0AF9
:1050400084E29DE00E944E0A08C01092480201C10D
:105050008EE19DE00E944E0AFCC081E08170FBC0A1
:10506000C43228F5CE3108F0C1C0CB30A1F1D0F464
:10507000C73009F0D0C08EE18093090182E38093AC
:1050800008018AE08093070184E18093060188E0AB
:105090008093030188E28093020184EC9BE00E94EC
:1050A0004E0ABCC0C33149F1C431C1F0B4C0CB34E5
:1050B00009F4A6C028F4C93289F0C83361F0ABC046
:1050C000C13509F49BC0C23509F496C0CE3409F04D
:1050D000A2C06AE09BC00E940024A0C08091470249
:1050E000882319F01092470299C081ED9BE00E943D
:1050F0004E0A81E080934802AEC08BEA9BE00E949A
:105100004E0A89E99BE00E944E0A809109011F9294
:105110008F9386E99BE09F938F930E94E70A84E92F
:105120009BE00E944E0A82E89BE00E944E0A80911A
:1051300008011F928F938FE79BE09F938F930E94AC
:10514000E70A8DE79BE00E944E0A8EE69BE00E94F4
:105150004E0A809107011F928F938BE69BE09F93ED
:105160008F930E94E70A89E69BE00E944E0A88E539
:105170009BE00E944E0A809106011F928F9385E565
:105180009BE09F938F930E94E70A83E59BE00E9438
:105190004E0A8EE39BE00E944E0A809103011F920B
:1051A0008F938BE39BE09F938F930E94E70A89E3A1
:1051B0009BE00E944E0A82E29BE00E944E0A809190
:1051C00002011F928F938FE19BE09F938F930E9428
:1051D000E70A8DE19BE00E944E0A8DB79EB7489684
:1051E0000FB6F8949EBF0FBE8DBF18C08C2F0E94C3
:1051F000D6278093470212C061E003C061E006C079
:105200006AE0809147020E94172408C080914702FB
:105210000E94BA2403C082EC9BE013C08091470235
:10522000882369F01F928F938CEB9BE09F938F9361
:105230000E94E70A0F900F900F900F9004C089EB27
:105240009BE00E944E0A81E006C01092480280E076
:1052500002C080E003CFCF91089580915402089559
:105260009FB7F89410924B029FBF90917A029430AE
:1052700009F057C09091E9009F703091EC00232F06
:10528000217030FD20E8922B23E02093E90020914B
:10529000EB0020FF43C02091EE0027FF3FC020918C
:1052A0004902222321F02091E80025FF37C0109207
:1052B000490226E03091E80035FD15C030917A02B0
:1052C000343061F53091EB0035FD28C0215021F4D8
:1052D00081E08093490222C0EFE9FFE03197F1F7C6
:1052E00000C00000E7CF8093F1008091E80085FDC9
:1052F0000AC08091E80080FFFCCF8091E8008E77A3
:105300008093E80006C08FB7F89421E020934B0209
:105310008FBF9F709093E90080E008959F709093F5
:10532000E9008FEF0895CF93DF9300D01F92CDB7A0
:10533000DEB790917A02943019F589837B836A8372
:1053400082E08093E9008FEF9091E800815095FD15
:1053500006C095ED9A95F1F700008111F5CF809187
:10536000E80085FF0DC040E050E063E070E0CE0152
:1053700001960E943C2C8091E8008E778093E80093
:105380000F900F900F90DF91CF910895CF93DF93FF
:10539000EC010E941F2C823011F0843031F4BE01E8
:1053A00084E0DF91CF910C949329DF91CF91089500
:1053B000BC0183E00C949329CF93DF93EC010E940E
:1053C0001F2C823011F08430F9F482E08093E900E0
:1053D0008FEF9091E800815095FD06C095ED9A956C
:1053E000F1F700008111F5CF8091E80085FF0CC036
:1053F00040E050E066E070E0CE010E943C2C8091DD
:10540000E8008E778093E800DF91CF910895CF93E5
:10541000DF93EC010E941F2C823011F0843039F5AB
:1054200081E08093E9008FEF9091E800815095FD35
:1054300006C095ED9A95F1F700008111F5CF8091A6
:10544000E80085FF14C040E050E068E070E0CE0165
:105450000E943C2C8091E8008E778093E80088E0E1
:10546000FE01ACE4B2E001900D928A95E1F7DF9184
:10547000CF9108958FE692E10E944E0A80917902C1
:10548000811109C00E94CD2D0E942A2E8091E20038
:1054900084608093E20008958BE692E10E944E0AB8
:1054A00010927902089587E692E10C944E0A83E601
:1054B00092E10C944E0A8FE592E10E944E0A0C9400
:1054C000292020914A022F5F822F62E30E94D93067
:1054D000992319F020934A02089510924A0280916C
:1054E0004B02882371F180917A02843041F58091DA
:1054F000E9008F702091EC00922F917020FD90E8D0
:10550000892B93E09093E9009091EB0090FF14C0F9
:105510009091EE0097FF10C09091E80095FF03C0B6
:105520001092F100F9CF9091E80090FF05C09091A2
:10553000E8009E779093E8008F708093E9001092C6
:105540004B02089542E061EC81E00E94462D42E268
:1055500061EC82E00E94462D42E261EC83E00C9413
:10556000462D80917C02833009F460C030F4813094
:1055700071F0823009F499C008958A3009F485C029
:105580008B3009F46BC0893009F0A7C020C080912E
:105590007B02813A09F0A1C08091E800877F809367
:1055A000E80080917F0290918002892B21F468E0CD
:1055B0008CE492E003C060E080E090E070E00E9444
:1055C000872C8091E8008B778093E8000895809184
:1055D0007B02813209F081C080917F02909180022C
:1055E000029708F07AC08091E800877F8093E800F6
:1055F0008091E80082FD05C080917A028111F8CF88
:105600006CC02091F3008091F20090E0922B029701
:1056100029F48091F1008B7F813021F48091F10099
:10562000809354028091E8008B7753C080917B0275
:10563000813A09F052C080917F0290918002892BBB
:1056400009F04BC08091E800877F8093E80080914B
:10565000E80080FFFCCF8091140136C080917B026E
:105660008132D9F580917F0290918002892BA9F532
:105670008091E800877F8093E8000E947B2D8091D5
:105680007D02809314010C943B1880917B0281323F
:1056900021F58091E800877F8093E8000E947B2DB0
:1056A00080917E0280935502089580917B02813A19
:1056B000A1F48091E800877F8093E8008091E80062
:1056C00080FFFCCF809155028093F1008091E8002B
:1056D0008E778093E8000C947B2D089584B7877FA4
:1056E00084BF0FB6F894A89580916000886180937C
:1056F0006000109260000FBE90E080E80FB6F89452
:1057000080936100909361000FBE0E9455130E9428
:10571000CD2D0E942A2E8091E20084608093E200C9
:1057200080E399E20E94BB1E78940E94BE300E94E2
:105730005F138AE091E00E94B1128EE492E10E9430
:105740004E0A80917A02853089F48AE492E10E94BF
:105750004E0A0E94F71F80917802882391F30E94DD
:10576000DE1F882371F30E94262CEBCF0E948F133B
:10577000E8CF0C94BB2B292F332723303105C9F0F8
:1057800060F42130310581F02230310509F047C045
:105790008BE590E021EA32E146C02132310511F17A
:1057A0002232310561F13BC082E190E02CEF32E121
:1057B0003AC099278130910561F040F0823091051F
:1057C00059F0039761F5E3E7F2E108C0EDE9F2E192
:1057D00005C0EDE8F2E102C0E9E7F2E1849190E072
:1057E0009F0121C063307105D0F4660F771FFB0164
:1057F000E456FE4F2081318189E090E014C063308F
:10580000710568F4FB01EE0FFF1FEA56FE4F208181
:105810003181FB01ED56FE4F808190E004C080E0B5
:1058200090E020E030E0FA013183208308958091F8
:105830007A02843011F081E0089582E00895809129
:105840005602811102C00C94172C089580E189BD85
:1058500082E189BD09B400FEFDCF8091D8008F7D23
:105860008093D8008091E00082608093E000809176
:10587000E00081FDFCCF0895CF92DF92EF92FF927E
:105880000F931F93CF93DF93EC018B017A010E945A
:105890009A2D811133C0E114F10439F0F7018081B0
:1058A0009181081B190BC80FD91FC12CD12C0115D0
:1058B000110519F18091E80085FD16C08091E8007E
:1058C0008E778093E800E114F10449F0F7018081BC
:1058D0009181C80ED91ED182C08285E00FC00E947E
:1058E0009A2D882321F30AC089918093F1000150F9
:1058F0001109FFEFCF1ADF0ADACF80E0DF91CF91F5
:105900001F910F91FF90EF90DF90CF90089520911D
:105910008102309182022617370748F06115710520
:1059200039F42091E8002E772093E80001C0B901F6
:10593000FC0120E06115710579F180917A028823DC
:10594000F1F18530F1F18091E80083FD3CC0809158
:10595000E80082FD2EC08091E80080FFEBCF20910F
:10596000F3008091F20090E0922B6115710551F0E7
:105970008830910538F421912093F100615071092C
:105980000196F3CF21E0089709F020E08091E8002C
:105990008E778093E800CECF2111CFCF0AC08091BF
:1059A0007A02882361F0853061F08091E80083FD00
:1059B0000AC08091E80082FFF2CF80E0089582E083
:1059C000089583E0089581E0089520918102309147
:1059D00082022617370748F06115710539F42091C6
:1059E000E8002E772093E80001C0B901FC0120E017
:1059F0006115710591F180917A02882309F440C004
:105A0000853009F43FC08091E80083FD3DC080915E
:105A1000E80082FD2FC08091E80080FFE9CF20914F
:105A2000F3008091F20090E0922B6115710559F01E
:105A30008830910540F424912093F1003196615013
:105A400071090196F2CF21E0089709F020E08091DA
:105A5000E8008E778093E800CBCF2111CCCF0AC02D
:105A600080917A02882361F0853061F08091E800AE
:105A700083FD0AC08091E80082FFF2CF80E00895A4
:105A800082E0089583E0089581E00895982F97308B
:105A900068F59093E900981739F07091EC00209127
:105AA000ED005091F00003C0242F762F50E021FD2F
:105AB00002C09F5FECCF3091EB003E7F3093EB0054
:105AC0003091ED003D7F3093ED003091EB0031607F
:105AD0003093EB007093EC002093ED005093F000B6
