:100000000C9403070C944A070C944A070C944A0773
:100010000C944A070C944A070C944A070C944A071C
:100020000C944A070C944A070C94AF2B0C94812C27
:100030000C94891D0C944A070C944A070C944A07A7
:100040000C944A070C944A070C944A070C944A07EC
:100050000C944A070C94E21D0C944A070C944A072E
:100060000C944A070C944A070C944A070C944A07CC
:100070000C944A070C944A070C944A070C944A07BC
:100080000C944A070C944A070C944A070C944A07AC
:100090000C944A070C944A070C944A070C944A079C
:1000A0000C944A070C944A070C944A070D130D133D
:1000B0003F133F138C13AA1302150215EC1381147E
:1000C00092149214F21402150215FB14A515A5152D
:1000D000B715B715AE15B715B715B715A515A515ED
:1000E000B315B715B715B315EE2C152D0D2E152D0F
:1000F0000D2E612D842D0D2EDB2DEA2D29001E00E5
:100100001F00200021002200000023002400250001
:10011000260027002E002B0014001A0008001500EE
:10012000170000001C0018000C0012001300310022
:10013000E00004001600070009000A0000000B00A0
:100140000D000E000F0033003400E1001D001B0005
:10015000060019000500E30011001000360037000A
:1001600038002F0002583900E200350201582A00F9
:1001700028002C002D00260227023000E500105038
:100180000100010001000100010000000100010068
:100190000100010001003500010001000100010023
:1001A0000100010000000100010001000100010048
:1001B0000100010001000100010001000100000038
:1001C0005000510052004F000100A9000100010041
:1001D0000100010001000100010001000100010017
:1001E00001000100AA00010001000100010001005E
:1001F000010001004C000100010001000100A80005
:1002000010501E001F0020002100220000002300CB
:1002100024002500260027002E002B0014001A00C1
:1002200008001500170000001C0018000C00120048
:1002300013003100E00004001600070009000A0066
:1002400000000B000D000E000F0033003400E10031
:100250001D001B00060019000500290011001000F8
:10026000360037005200E50001000358000000008E
:10027000E2002C0028002C0000000000500051007B
:100280004F001050000000000000000000000000BF
:10029000000000000000000000000000000000005E
:1002A000000000000000000000000000000000004E
:1002B000000000000000000000000000000000003E
:1002C000000000000000000000000000000000002E
:1002D000000000000000000000000000000000001E
:1002E000000000000000000000000000010000000D
:1002F00000000000000000000000000000000000FE
:100300000000005C44454255473A206469736162CD
:100310006C65642E0A0044454255473A20656E617B
:10032000626C65642E0A000A002530313662003A9C
:10033000200025303258000A722F632030313233CA
:100340003435363738394142434445460A00556E04
:1003500069636F646520696E707574206D6F646584
:100360002073657420746F3A2025750A00556E69F4
:10037000636F646520696E707574206D6F646520AD
:10038000696E697420746F3A2025750A000A002589
:1003900030325820006B6579626F6172645F7265FC
:1003A000706F72743A20000A0025303258006B6575
:1003B00079626F6172645F7365745F6C65643A2023
:1003C00000290A002575002F002575005D280025ED
:1003D00064002000256400200025640020002564BE
:1003E000007C0025303258006D6F7573656B657940
:1003F000205B62746E7C782079207620685D28729C
:1004000065702F61636C293A205B006D6B5F7768C4
:1004100065656C5F74696D655F746F5F6D61782091
:100420003D2025640A006D6B5F776865656C5F6DC4
:1004300061785F7370656564203D2025640A006DF6
:100440006B5F74696D655F746F5F6D6178203D20CF
:1004500025640A006D6B5F6D61785F73706565641C
:10046000203D2025640A006D6B5F696E74657276AD
:10047000616C203D2025640A006D6B5F64656C61D2
:1004800079203D2025640A006D6B5F776865656C97
:100490005F74696D655F746F5F6D6178203D2025C5
:1004A000640A006D6B5F776865656C5F6D61785F8E
:1004B0007370656564203D2025640A006D6B5F7470
:1004C000696D655F746F5F6D6178203D2025640AFA
:1004D000006D6B5F6D61785F7370656564203D20B2
:1004E00025640A006D6B5F696E74657276616C20BD
:1004F0003D2025640A006D6B5F64656C6179203D69
:100500002025640A000A00257500363A20776865C0
:10051000656C5F74696D655F746F5F6D61783A20BB
:10052000000A00257500353A20776865656C5F6DB7
:1005300061785F73706565643A20000A0025750074
:10054000343A2074696D655F746F5F6D61783A202D
:10055000000A00257500333A206D61785F7370657D
:1005600065643A20000A00257500323A20696E74ED
:10057000657276616C286D73293A20000A00257532
:1005800000313A2064656C6179282A31306D732915
:100590003A20000A092D2056616C756573202D0ADA
:1005A000004D3E004D25643E20003F0073657420E1
:1005B00064656661756C740A00433E200077686567
:1005C00072652064656C74613A20637572736F7232
:1005D0003D25642C20776865656C3D25640A53656C
:1005E0006520687474703A2F2F656E2E77696B6979
:1005F00070656469612E6F72672F77696B692F4D23
:100600006F7573655F6B6579730A000A092D204D5C
:100610006F7573656B6579202D0A4553432F713AC9
:1006200009717569740A313A0964656C6179282A1F
:1006300031306D73290A323A09696E7465727661D8
:100640006C286D73290A333A096D61785F737065A0
:1006500065640A343A0974696D655F746F5F6D6132
:10066000780A353A09776865656C5F6D61785F7304
:10067000706565640A363A09776865656C5F746908
:100680006D655F746F5F6D61780A0A703A09707208
:10069000696E742076616C7565730A643A097365D6
:1006A000742064656661756C74730A75703A092B01
:1006B000310A646F776E3A092D310A706775703AA6
:1006C000092B31300A7067646F776E3A092D31302B
:1006D0000A0A7370656564203D2064656C7461204E
:1006E0002A206D61785F7370656564202A20287206
:1006F0006570656174202F2074696D655F746F5F2C
:100700006D6178290A003F004D3E2000433E2000E5
:100710004C25640A0074696D65725F7265616433AB
:100720003228293A202530346C580A006B657962EA
:100730006F6172645F69646C653A2025580A006BCA
:100740006579626F6172645F70726F746F636F6CF2
:100750003A2025580A00686F73745F6B6579626F81
:100760006172645F6C65647328293A2025580A0019
:100770000A092D20537461747573202D0A004743B4
:10078000433A20352E342E30204156522D4C4942CA
:10079000433A20322E302E30204156525F41524390
:1007A000483A20617672350A004F5054494F4E53F3
:1007B0003A204C554641204D4F5553454B45592005
:1007C00045585452414B455920434F4E534F4C4589
:1007D00020434F4D4D414E4420343039360A0042BB
:1007E00055494C443A202262653733376422202829
:1007F00032313A35323A333120417072203233206F
:1008000032303230290A005649443A203078464581
:1008100045442850726F66657429205049443A2037
:100820003078363036322841747265757336322925
:10083000205645523A203078303030310A00444555
:1008400053433A20712E6D2E6B2E206B6579626FAB
:10085000617264206669726D7761726520666F727D
:100860002041747265757336320A000A092D2056CC
:10087000657273696F6E202D0A000A092D20436F7F
:100880006E736F6C65202D0A4553432F713A0971C1
:100890007569740A6D3A096D6F7573656B65790AD0
:1008A000000A092D204D61676963202D0A443A0929
:1008B0004465627567204D65737361676520546F89
:1008C00067676C650A583A094D617472697820440B
:1008D00065627567204D6F646520546F67676C654E
:1008E000202D2053686F77206B6579707265737364
:1008F000657320696E206D61747269782067726912
:10090000640A4B3A094B6579626F617264204465F1
:1009100062756720546F67676C65202D2053686F80
:1009200077206B65797072657373207265706F7272
:10093000740A4D3A094465627567204D6F75736599
:1009400020546F67676C650A563A09566572736979
:100950006F6E0A533A095374617475730A433A0906
:10096000416374697661746520436F6E736F6C6563
:10097000204D6F64650A46312D4631303A09537770
:100980006974636820746F204C6179657220302D22
:10099000392028463130203D204C30290A302D396D
:1009A0003A0953776974636820746F204C617965E4
:1009B0007220302D390A47524156453A095377691A
:1009C00074636820746F204C617965722030202830
:1009D000616C7465726E617465290A423A094A75E0
:1009E0006D7020746F20426F6F746C6F61646572FC
:1009F0000A4553433A094A756D7020746F20426F5F
:100A00006F746C6F616465722028616C7465726EBE
:100A1000617465290A453A095072696E742045452A
:100A200050524F4D2053657474696E67730A425378
:100A3000504143453A09436C656172204545505227
:100A40004F4D0A000A002575002E6E6B726F3A201A
:100A5000000A002575002E737761705F6261636B19
:100A6000736C6173685F6261636B73706163653A35
:100A700020000A002575002E737761705F67726130
:100A800076655F6573633A20000A002575002E6E57
:100A90006F5F6775693A20000A002575002E73772D
:100AA00061705F72616C745F726775693A20000AE9
:100AB000002575002E737761705F6C616C745F6CDC
:100AC0006775693A20000A002575002E73776170FA
:100AD0005F7263746C5F726775693A20000A002563
:100AE00075002E737761705F6C63746C5F6C6775F3
:100AF000693A20000A002575002E636170736C6FDF
:100B0000636B5F746F5F636F6E74726F6C3A20001B
:100B10000A002575002E737761705F636F6E7472C3
:100B20006F6C5F636170736C6F636B3A20000A00D7
:100B300025303258006B65796D61705F636F6E664A
:100B400069672E7261773A20000A002575002E6DC4
:100B50006F7573653A20000A002575002E6B657964
:100B6000626F6172643A20000A002575002E6D6183
:100B7000747269783A20000A002575002E656E614E
:100B8000626C653A20000A002530325800646562C4
:100B900075675F636F6E6669672E7261773A2000D2
:100BA0000A0025750064656661756C745F6C617917
:100BB00065723A20003F000A6D6F7573653A206FC9
:100BC00066660A000A6D6F7573653A206F6E0A00DB
:100BD0000A6B6579626F6172643A206F66660A001B
:100BE0000A6B6579626F6172643A206F6E0A000A5F
:100BF0006D61747269783A206F66660A000A6D61E9
:100C0000747269783A206F6E0A000A6465627567CB
:100C10003A206F66660A000A64656275673A206F5B
:100C20006E0A000A0A4A756D70696E6720746F203B
:100C3000626F6F746C6F616465722E2E2E2000439C
:100C40003E2000436C656172696E672045455052D5
:100C50004F4D0A006565636F6E6669673A0A005B0F
:100C6000735D004B6579626F6172642073746172A9
:100C7000742E0A005B575D005B535D005B525D00A4
:100C80005B445D005B435D00040330000000120321
:100C90004100740072006500750073003600320078
:100CA00000000E03500072006F00660065007400C3
:100CB00000000403090409025B00030100A0FA0913
:100CC000040000010301010009211101000122407B
:100CD000000705810308000A090401000103000060
:100CE0000009211101000122810007058203200073
:100CF0000A09040200020300000009211101000199
:100D000022220007058303200001070503032000BA
:100D1000011201100100000008EDFE6260010001F7
:100D20000203010631FF0974A1010975150026FFB0
:100D3000009520750881020976150026FF00952090
:100D400075089102C005010902A10185020901A1EE
:100D50000005091901290515002501950575018171
:100D600002950175038101050109300931158125BD
:100D70007F95027508810609381581257F950175D3
:100D8000088106050C0A38021581257F9501750832
:100D90008106C0C005010980A101850319012AB798
:100DA00000150126B700950175108100C0050C09DA
:100DB00001A101850419012AA002150126A00295AE
:100DC0000175108100C005010906A101050719E0A0
:100DD00029E715002501950875018102950175081F
:100DE00081010507190029FF150026FF00950675EA
:100DF00008810005081901290595057501910295DD
:100E00000175039101C011241FBECFEFDAE0DEBFF0
:100E1000CDBF04B603FE27C0809185029091860263
:100E2000A0918702B09188028730904BA740B04BC9
:100E3000D1F41092850210928602109287021092CD
:100E4000880214BE84B7877F84BF0FB6F894A89534
:100E500080916000886180936000109260000FBEF6
:100E6000E0E0F8E3099511E0A0E0B1E0ECE7FDE592
:100E700002C005900D92A23AB107D9F722E0A2EA8A
:100E8000B1E001C01D92A538B207E1F70E94D52854
:100E90000C94BC2E0C940000FF93EF93E091A20100
:100EA000F091A301309709F00995EF91FF91089512
:100EB000FC018591803011F0EFDFFBCF0895FF2713
:100EC000E0E230E247FF0CC0419597FF09C0EDE238
:100ED0006095709580959095611D711D811D911D86
:100EE00027FF02C0219530E350E2AA27660F771F43
:100EF000881F991FAA1FA41710F0A41B63955A9569
:100F0000A9F7AA3008F0A95FA05DAF93F39561152A
:100F100071058105910541F7ED3211F4EF93F395D9
:100F2000F21718F43F93F395FBCF8F91B5DFFA9545
:100F3000E1F70895E991F9918591803021F08532AA
:100F400019F0AADFF9CF089520E0E89455915532C1
:100F5000C1F3503311F4689455915A3348F4505307
:100F600090F3220F022E220F220F200D250FF4CF17
:100F70000EF4219589919991533619F3533729F13C
:100F8000533559F1BC0188279927E8945C3621F440
:100F90008991999168945591543639F446EF7EF0D1
:100FA00077FF0DC08FEF9FEF0AC055374AE039F049
:100FB000583540E121F0523642E009F00895FF93A0
:100FC000EF937DDFEF91FF91B7CFFF93EF93FC019C
:100FD00081918030B9F360DFFBCFFF93EF9368DF3F
:100FE000F1CFDF93CF93CDB7DEB72596A3DFCF91B7
:100FF000DF9108959C013A9521153F4138F5DC01B8
:10100000AA27B270AC01442754709C012227387083
:1010100094FF0FC090FF02C080E101C080E0AB2BC5
:1010200009F08062452B09F08064232B69F0806809
:101030000BC0892F8170AB2B09F08260452B09F022
:101040008460232B09F08860FB0109940895CF93F5
:10105000DF93EC01805E9109089710F0209719F456
:101060006DEC72E102C06BE675E1CE010E94FA07F9
:101070008C2FDF91CF910C94A311CF93DF93EC01D0
:101080000E945212CE01805E9109089710F02097BD
:1010900019F464ED72E102C062E775E1CE01DF91FF
:1010A000CF910C94FA07CF93DF93EC010E942708AD
:1010B000CE01DF91CF910C943D0881E0089581E04D
:1010C00008950C945F0808950C9463081F93CF93C0
:1010D000DF9300D000D01F92CDB7DEB749835A838B
:1010E0006B833091BC0189819A81311114C06623D0
:1010F00059F0222349F00E94DE1A182F682F8981A7
:101100009A810E94871A03C00E94B21A182F69811F
:101110007A81812F04C00E94DE1A69817A810F9042
:101120000F900F900F900F90DF91CF911F910C9423
:101130004A09FC01262F408151816281738184819B
:101140000C946608CF93DF93EC0160E00E9499084D
:10115000BE01DF91CF910C9464080E943D1C811167
:1011600002C00E94DD1C0E94030D0C94AF0B0C9476
:10117000AB0B282F2F7041F0822F90E02A3010F413
:101180004D9608950697089587E290E00895089592
:101190000C94C70881E008950C94CA08CF93C82F17
:1011A0000E94C8088C2F0E94CC08CF910895089502
:1011B0000E9493150E94D7082FEF84E39CE02150F2
:1011C00080409040E1F700C000000C94081E0F938F
:1011D0001F93CF93DF93EC0161E00E9499088C018B
:1011E000BE010E946108882309F449C0BE01C801FC
:1011F0000E94A00D882309F442C0BE01C8010E94CC
:10120000460E8823E1F1BE01C8010E94870E8823A3
:10121000B1F1BE01C8010E94B20F882381F18A8119
:10122000882331F101308CE5180751F00E3D8CE533
:101230001807D9F001151C45D9F40E94D8081FC021
:1012400080913702C82FC095C170C0FB80F9809390
:101250003702CC2329F086E193E00E9458070FC0A3
:1012600084E093E00E9458070BC00E94DD1C07C079
:10127000CE01DF91CF911F910F910C945D08C0E0DA
:101280008C2FDF91CF911F910F91089580E090E016
:101290000895089521E4829FC0011124FC012DE0EE
:1012A000729FE00DF11D1124E60FF11DEE0FFF1FDF
:1012B000E450FF4F859194910895880F991FFC0188
:1012C000E95DFC4F859194910895CF93DF930E943F
:1012D0004A090E947D0AEC018115904508F041C041
:1012E000C11580E4D80708F0D1C0C83ED10510F57B
:1012F000C03ED10508F0FDC0C83AD10578F4C53A22
:10130000D10508F0A2C0C130D10509F4F2C008F43B
:10131000EEC0C430D10508F0ECC0E9C0CF3BD10528
:1013200008F49BC0C03CD10508F4E1C0CE01805C4C
:1013300091099EC0C11590E2D90758F4C11521E06A
:10134000D20708F0D6C0C03FD10508F4D0C0D065A0
:10135000D0C0C11580E3D80708F08EC0CE019F70C1
:1013600087C0C11595E5D90708F043C0C11524E52C
:10137000D20708F0A2C0C11582E5D80708F5C1154B
:1013800091E5D90708F085C0CE0174E09695879560
:101390007A95E1F783709C2F937021E030E002C0D2
:1013A000220F331F9A95E2F73C68382BCF70C69511
:1013B000C69580E2C89FE0011124C22BD32B99C0AF
:1013C0009E01237033278C2F86958695C115D345B2
:1013D00008F064C0C1E0D0E002C0CC0FDD1F2A9548
:1013E000E2F720E2829FC0011124C82BD92BDC68D0
:1013F00080C0C11529E5D207A0F4C11588E5D8073A
:1014000008F060C0C11596E5D90708F070C08C2FB0
:101410000E94110B8F71C82FD0E0DC2FCC27D06237
:1014200068C0C1152AE5D20708F451C0CE01905614
:101430008115904208F05BC08D2F8F710E94110BB7
:10144000DD27D0628F71D82B54C0C55AD0E0CD5B58
:10145000DE4FC881D0E0D0644CC0C85AD0E0CC0F79
:10146000DD1FCB5EDE4F0990D881C02DD46441C012
:101470000E945D09EC013DC0CE019927D3FF03C056
:10148000EC01D86C36C0EC01D06C33C0DF70D06A90
:1014900030C0DC2FCC27C16FD06A2BC0C1E0D0E0B8
:1014A00002C0CC0FDD1F2A95E2F720E2829FC00127
:1014B0001124C82BD92BDA681CC0DC2FCC27C46FB1
:1014C000D06A17C0DC2FCC27C06FD06A12C08C2F17
:1014D0008F700E94110B94E0D695C7959A95E1F70D
:1014E000CF70D0E0DC2FCC27D069C82B02C0C0E081
:1014F000D0E0CE01DF91CF9108958238910569F156
:10150000B0F48133910509F46DC048F48932910536
:1015100009F463C08A32910509F469C008958533DE
:10152000910509F455C089339105B9F00895833EBA
:10153000910569F138F4803E9105B1F0823E910544
:1015400009F10895863E9105A9F1873E9105B9F10B
:10155000843E910509F064C023C02091760220FDED
:101560004FC021FD4DC008958091760280FD44C09A
:101570008091770280FF44C08091760284FD42C052
:1015800083EE4DC08091760282FF38C0F5CF809106
:10159000760282FD33C08091770280FD31C0ECCFAE
:1015A0008091770281FF32C08091760284FD2AC04B
:1015B00087EE35C08091760283FF26C0F5CF8091FB
:1015C000760283FD21C08091770281FD1FC0ECCFA0
:1015D0008091760285FD1CC01DC08091760285FD3C
:1015E00019C016C08091760286FD16C017C0809182
:1015F000760286FD13C010C089E311C082EE0FC0D1
:1016000080EE0DC080E00BC086EE09C084EE07C0FE
:1016100089E205C085E303C08AE201C081E390E06E
:1016200008959091760292FF0DC0282F28712830DE
:1016300019F4877F846006C0282F2471243011F4A8
:101640008B7F886093FF0DC0282F2871283119F4F3
:10165000877E846106C0282F2471243111F48B7E8B
:1016600088612091770220FF0DC0382F3871383003
:1016700019F4877F816006C0382F3171313011F441
:101680008E7F886021FF0DC0282F2871283119F422
:10169000877E816106C0282F2171213111F48E7E51
:1016A000886194FD877E0895E82FF0E0EE0FFF1F1C
:1016B000EF59FD4F808191810895CF92DF92EF9293
:1016C000FF920F931F93CF93DF9387E393E00E94E2
:1016D000580781E6E82E82E0F82EC0E0D0E092E3E1
:1016E000C92E93E0D92E09E213E0DF93CF93DF9266
:1016F000CF920E94F1078FE293E00E945807F70112
:10170000819191917F010E942A1C9F938F931F9337
:101710000F930E94F10787E293E00E9458072196F9
:101720008DB79EB708960FB6F8949EBF0FBE8DBFBB
:10173000C530D105D1F6DF91CF911F910F91FF9068
:10174000EF90DF90CF90089580EA8A95F1F70895A1
:1017500008950C94A80B0C94A90B0C94A80B0C9452
:10176000AD0BCF93DF93A6E4B1E043E551E061E038
:1017700070E08D91E82FE295EF70F0E021A18F707D
:10178000EB0102C0CC0FDD1F8A95E2F7CE019C2F42
:101790009095922391A392A1892B82A34A175B076C
:1017A00041F7A3E5B1E048E551E061E070E08D91DB
:1017B000E82FE295EF70F0E021A18F70EB0102C0FD
:1017C000CC0FDD1F8A95E2F7CE019C2F90959223D6
:1017D00091A392A1892B82A34A175B0741F7E7E502
:1017E000F2E0A1E6B2E081E692E0119211921D9240
:1017F0001D928E179F07C9F785E00E94B30CDF91F9
:10180000CF910C94AD082F923F924F925F926F92BE
:101810007F928F929F92AF92BF92CF92DF92EF9280
:10182000FF920F931F93CF93DF9300D000D0CDB7DB
:10183000DEB786E4C82E81E0D82EE12CF12C10E032
:10184000AA24A394B12C21E6422E22E0522ED601E6
:101850008D916D01B82FB295BF70EB2FF0E0FC8336
:10186000EB8391A18F70450101C0880C8A95EAF73E
:10187000892F882981A382A1382C3094832182A3C7
:101880000E94A40BA5010E2C02C0440F551F0A9400
:10189000E2F73A016094709423E531E03A832983BA
:1018A000E7E5F2E0212CBF0180819181A981BA8115
:1018B0000D91BA83A983202F22952F7030E0D90192
:1018C00090962C9130E00F7002C0359527950A95BF
:1018D000E2F720FD04C09C01242B352B03C09C01A2
:1018E00026213721318320833296DB012D913C91D3
:1018F0008217930711F0222423944E165F0699F65F
:10190000EB81FC8181A1382231A282A1882A82A2A6
:101910001229FFEFEF1AFF0A2DE0E216F10409F099
:1019200096CF212F45E061E672E087E592E00E94C4
:10193000B40C0E94B708812F0F900F900F900F905A
:10194000DF91CF911F910F91FF90EF90DF90CF909B
:10195000BF90AF909F908F907F906F905F904F90CF
:101960003F902F9008950895FF920F931F93CF9368
:10197000DF93F82E092F162FD72FC42F222349F0DB
:1019800081E08093A6010E94BB1D9093A5018093E6
:10199000A4018091A6018823D9F08091A40190919F
:1019A000A5010E94D31D069798F0EF2DF02FA12FCF
:1019B000BD2F80E090E04C2F50E08417950734F461
:1019C000219131912D933D930196F7CF1092A6016D
:1019D000DF91CF911F910F91FF900895CF93DF93E7
:1019E00097FF0DC0FB012281222349F0EC010E94E8
:1019F000420DCE019F770E94830D0E946C0D81E005
:101A0000DF91CF9108958CE090E00E947A2E90E0D3
:101A1000A0E0B0E080936B0290936C02A0936D0203
:101A2000B0936E028091370280FF0EC080916B02EE
:101A30001F928F938DE693E09F938F930E94F107FF
:101A40000F900F900F900F90089560916B028CE0B3
:101A500090E00C94882E80936B020E94250D80915B
:101A6000370280FF0EC080916B021F928F938EE42D
:101A700093E09F938F930E94F1070F900F900F9028
:101A80000F9008950E945F1B80936F020E94721B4B
:101A900080916B02813071F048F0823081F08430A7
:101AA000A1F486EE0E94BA1288E10DC082EE0E9477
:101AB000A3110BC088E193E00E94530806C082EE98
:101AC0000E94A31187E50E94BA128FE39CE9019757
:101AD000F1F700C00000089580916B02813039F069
:101AE00040F0823031F0843051F488E206C08CE25C
:101AF00004C082EE0E94521202C00E94BA1280916B
:101B00006F020C946F1B0F931F93CF93DF938C0185
:101B1000CCE0D0E0C8010C2E02C0969587950A94BF
:101B2000E2F78F700E94B9080E94BA122497CC3F46
:101B30008FEFD80779F7DF91CF911F910F9108951B
:101B40000F931F93CF93DF93EC018B01FB018281F5
:101B5000882301F1C33EFCE5DF07B9F050F4C13E34
:101B6000ECE5DE0781F0C23EFCE5DF0799F481E099
:101B70000FC0C43E8CE5D80751F0C53EECE5DE074A
:101B800049F484E005C080E003C082E001C083E046
:101B90000E942B0DB801CE01DF91CF911F910F91C3
:101BA0000C94EE0C0F931F93CF93DF93C62FD42F7B
:101BB000122FFC0182818823C9F06093A9010E9441
:101BC000BB1D9093A8018093A70180E28C0F883001
:101BD00008F057C0C77081E001C0880FCA95EAF7C6
:101BE000DF91CF911F910F910C94CD128091A9019B
:101BF000681330C08091A7019091A8010E94D31D65
:101C0000883C910538F500E20D0FCD17B9F080E260
:101C10008C0F883040F4C77081E001C0880FCA95EE
:101C2000EAF70E94D412083028F581E09D2F9770C2
:101C300001C0880F9A95EAF70E94CD12812F0E9469
:101C4000BA120830F0F4D77081E001C0880FDA953D
:101C5000EAF70AC080E28C0F883098F4C77081E000
:101C600001C0880FCA95EAF7DF91CF911F910F91BC
:101C70000C94D412812FDF91CF911F910F910C946E
:101C8000BA12DF91CF911F910F9108959C01CB0162
:101C9000233F4CE53407F9F078F4283DFCE53F0795
:101CA000B9F0293D4CE5340711F1273D3C4531F5AC
:101CB00026E241EE61EE1EC0253FFCE53F0799F0AC
:101CC00070F0263F3C45D1F427E245EE66EE12C0A7
:101CD00027E245EE0EC026E241EE60EE0BC027E2A1
:101CE00045EE64EE07C026E241EE62EE03C028E254
:101CF00041E065EE0E94D20D80E00895FC018281F2
:101D0000882319F01092A901089581E00895CF93D6
:101D1000DF93EC01FB018281882309F41FC1C230EB
:101D2000FCE5DF0708F41BC1C6319CE5D90738F094
:101D30009E012A5F3C452930310508F010C10E9400
:101D4000501C9093770280937602C031ECE5DE0759
:101D500009F4C3C008F041C0C8308CE5D80709F4C5
:101D60009AC0F0F4C430ECE5DE0709F487C068F4EB
:101D7000C2308CE5D80709F477C0C330DC4509F0E0
:101D8000E3C080917602826076C0C630ECE5DE0763
:101D900009F46EC008F07BC08091760288606BC049
:101DA000CC308CE5D80709F485C068F4CA30ECE57E
:101DB000DE0709F474C008F079C00E949315809181
:101DC0007602806858C0CE308CE5D80709F476C01A
:101DD00008F07FC0809176028BC0CB3FECE5DE0738
:101DE00009F44FC018F5C3318CE5D80709F47DC05C
:101DF00078F4C131ECE5DE0709F473C0C231DC458B
:101E000009F0A2C00E949315809176028F7733C0AB
:101E1000C5318CE5D80709F472C008F486C0CA3F02
:101E2000DC4509F091C0809177023EC0CF3FFCE5D0
:101E3000DF0709F45FC058F4CD3F9CE5D90709F4EA
:101E400044C008F43FC08091770282602DC0C13049
:101E5000FDE5DF0709F475C008F45DC0C230DD455B
:101E600009F072C080E06EC080917602816003C08C
:101E70008091760280618093760266C080917602BE
:101E800011C0809177028260809377025DC080915B
:101E900076028062F0CF809176028064ECCF8091F0
:101EA000760288608460E7CF8160EECF8091760211
:101EB0008E7FE1CF809176028D7FDDCF809176029B
:101EC000877FD9CF8091770218C0809177028D7F6C
:101ED000DBCF809176028F7ECECF809176028F7D90
:101EE000CACF809176028F7BC6CF80917602877FA2
:101EF0008B7FC1CF809177028D7F8E7FC5CF809100
:101F0000760282FB222720F991E0922790FB82F94A
:101F100090FB83F9B0CF80917702982F90959170C4
:101F20008E7F892B90FB81F9AFCF0E949315809112
:101F3000760287FB222720F991E0922790FB87F910
:101F40009ACF81E00E94DF1C809176029091770207
:101F50000E94611C0E94931580E001C081E0DF9126
:101F6000CF910895CF93DF9386319C4541F5EB01E6
:101F70000E945F1B982F8A812091000130910101FE
:101F8000882379F09A7A81E009F480E08093AA01AD
:101F9000911102C069E201C065E3C9010E94261DDA
:101FA0000AC08091AA01811102C069E201C065E303
:101FB000C9010E94281D0E94B01B80E001C081E081
:101FC000DF91CF9108959093B0018093AF01089570
:101FD000E091AF01F091B001309721F00190F081D4
:101FE000E02D099480E00895EF92FF920F931F93E4
:101FF000CF93DF93E091AF01F091B0013097B1F151
:102000008C010280F381E02D09958091370282FFD7
:102010002DC080FF04C085E993E00E945807E801C5
:1020200018E08FE8E82E83E0F82E8091370280FFD9
:102030000BC088811F928F93FF92EF920E94F1074D
:102040000F900F900F900F90115021961111EDCF1E
:102050008091370280FF0AC08DE893E0DF91CF9135
:102060001F910F91FF90EF900C945807DF91CF9143
:102070001F910F91FF90EF900895E091AF01F091C3
:10208000B001309739F022E0DC012C930480F58117
:10209000E02D099408952091AD013091AE012817EB
:1020A000390771F09093AE018093AD01E091AF01DB
:1020B000F091B001309721F00680F781E02D09946E
:1020C00008952091AB013091AC012817390771F0C8
:1020D0009093AC018093AB01E091AF01F091B0011E
:1020E000309721F00084F185E02D0994089585B79B
:1020F000806885BF85B7806885BF089508950C9472
:102100007E100C947F100C947E100C947E100E9414
:1021100077100E9483100C94811081E008950E9432
:10212000B21D0E94B10B0E94191E0C948510CF9312
:10213000C82F8091370282FF1EC080FF04C08EEA44
:1021400093E00E9458078091370280FF0CC01F92D5
:10215000CF9389EA93E09F938F930E94F1070F90AA
:102160000F900F900F908091370280FF04C087EA94
:1021700093E00E9458078C2FCF910C94CE087F9249
:102180008F929F92AF92BF92CF92DF92EF92FF9287
:102190000F931F93CF93DF93CDB7DEB72A970FB678
:1021A000F894DEBF0FBECDBF0E94030C0E948D10BD
:1021B000811111C08FEF89838A831B820E94BB1D0E
:1021C0008160782F9D838C8349815A816B818D81B9
:1021D0000E946F114FC042EBA42E41E0B42E00E0EC
:1021E00010E0702E802F0E94540B6C01F50181903D
:1021F00091905F01882699268114910431F40F5F34
:102200001F4F0530110569F7D5CF8091370281FD49
:102210000E945D0B80E0EE24E394F12C94012E21CA
:102220003F21232B09F18E837F82CE20DF2081E0A6
:10223000CD2809F480E088870E94BB1D8160782F3B
:102240009A8789874E815F8168858A850E946F1190
:10225000000F111FF801EE54FE4F80819181E82696
:10226000F926F182E08206C08F5FEE0CFF1C8D30F4
:10227000A9F6C5CF0E942D200E94E80F9091B101D0
:102280008917C9F00E94E80F8093B1012A960FB612
:10229000F894DEBF0FBECDBFDF91CF911F910F919C
:1022A000FF90EF90DF90CF90BF90AF909F908F9076
:1022B0007F900C9497102A960FB6F894DEBF0FBE4D
:1022C000CDBFDF91CF911F910F91FF90EF90DF90E5
:1022D000CF90BF90AF909F908F907F900895CF93B5
:1022E000DF93CDB7DEB72B970FB6F894DEBF0FBEE6
:1022F000CDBF4F83588769877A878B87DE01119618
:1023000086E0FD0111928A95E9F785E0FE01379696
:1023100001900D928A95E1F749815A816B817C8108
:102320008D819E810E944C182B960FB6F894DEBFCB
:102330000FBECDBFDF91CF910895FC0180819181C7
:102340000E94201B0895CF93882309F4A9C0C82FA9
:102350008238C1F40E94E80F81FDA2C069E3809138
:102360000001909101010E94261D0E94B01B2FEFD9
:1023700081EE94E0215080409040E1F700C00000E1
:1023800069E319C0833801F50E94E80F80FD88C019
:1023900063E580910001909101010E94261D0E9439
:1023A000B01B2FEF81EE94E0215080409040E1F788
:1023B00000C0000063E580910001909101010E943E
:1023C000281DCF910C94B01B8438C1F40E94E80FF3
:1023D00082FD66C067E480910001909101010E9436
:1023E000261D0E94B01B2FEF81EE94E0215080400B
:1023F0009040E1F700C0000067E4DDCF8CEF8C0F68
:10240000813AF8F48C2F0E944825811149C06C2F25
:1024100080910001909101010E94F01C882349F0F5
:102420006C2F80910001909101010E94281D0E9453
:10243000B01B6C2F80910001909101010E94261D1C
:10244000C0CF80E28C0F883048F4C77081E001C0B3
:10245000880FCA95EAF70E94621BB3CFEBE5EC0F39
:10246000E33040F4F0E0EA57FE4F808190E0CF91F6
:102470000C944B10E8E5EC0FE73150F4F0E0EE0F70
:10248000FF1FE85AFE4F80819181CF910C9461101B
:10249000C03F30F08C2F0E94B31ECF910C94A01F30
:1024A000CF910895882309F464C0823879F40E949A
:1024B000E80F81FF5EC069E3809100019091010106
:1024C0000E94261D0E94B01B69E310C08338B1F43E
:1024D0000E94E80F80FF4DC063E58091000190915C
:1024E00001010E94261D0E94B01B63E5809100013E
:1024F000909101010E94281D0C94B01B843879F43E
:102500000E94E80F82FF35C067E48091000190913E
:1025100001010E94261D0E94B01B67E4E7CF9CEFDB
:10252000980F913A10F4682FE1CF90E2980F98300D
:1025300050F4877091E001C0990F8A95EAF7892FCE
:102540000E94681BD9CF9BE5980F933020F480E060
:1025500090E00C944B1098E5980F973120F480E0B0
:1025600090E00C946110803F20F00E941B1F0C949F
:10257000A01F0895CF93C82F0E94A311C93349F417
:102580002FEF87EE93E0215080409040E1F700C0AC
:1025900000008C2FCF910C945212882321F00E94BE
:1025A000621B0C94B01B0895882321F00E94681BC5
:1025B0000C94B01B0895CF92DF92EF92FF920F938D
:1025C0001F93CF93DF937C01062FC72FFC0115814A
:1025D00012951F70D281D1110E94821B0E94581B3C
:1025E000882379F0DD2369F080E2800F883048F09D
:1025F00082E00E94FA1B0E94581B91E0D82ED92637
:1026000001C0D12CCC2EC2948FE0C8228C2D90E03A
:10261000FC01EA5AFF4F0C94602E8C2F807FCF7004
:10262000882311F0C295C07FDD2399F0CC2309F4F3
:10263000C4C180E2800F883010F0011104C08C2FDB
:102640000E94621B03C08C2F0E94751B0E94B01B4E
:10265000B4C1802F0E945212CC2309F4D3C180E26E
:10266000800F883010F0011104C08C2F0E94681B6D
:1026700003C08C2F0E947B1B0E94B01BC3C18C2FF8
:10268000807FCF70803211F0C295C07F002319F097
:102690000130C9F022C0DD2371F0112341F0113067
:1026A00031F40E94951B8C2B0E949D1BABC10E9494
:1026B000951B8C2B1DC0112319F0113009F4A2C1F8
:1026C0000E94A61B25C0DD2321F0163008F09AC118
:1026D0000EC0153008F096C11BC0DD2361F0112338
:1026E00031F0F701858180FF68C18F7085838C2F61
:1026F0000E94CD1287C1112359F0093309F06EC130
:10270000FFEF27EE83E0F15020408040E1F764C105
:102710008C2F0E94D41276C18C2F8695869583705B
:1027200019F0813061F06EC1DD2321F0802F9C2FE4
:10273000937002C080E090E00E944B106BC1DD23DB
:1027400021F0802F9C2F937002C080E090E00E94C7
:10275000611060C1DD23F9F0053F51F0063F71F0D3
:10276000043FA9F4809170029091710281600BC0C6
:102770008091700290917102826005C08091700218
:102780009091710284609093710280937002802F07
:102790000E94B31E1EC0053F51F0063F71F0043F7A
:1027A000A9F480917002909171028E7F0BC080918C
:1027B0007002909171028D7F05C08091700290919E
:1027C00071028B7F9093710280937002802F0E9420
:1027D0001B1F0E94A01F1EC18C2F837009F045C0D3
:1027E000D11114C1402F429546954770440F440FB4
:1027F000602F6F70862F90E0A0E0B0E0042E04C040
:10280000880F991FAA1FBB1F0A94D2F704FF10C09C
:102810000FE010E020E030E004C0000F111F221F85
:10282000331F4A95D2F7009510952095309503C037
:1028300000E010E09801C695C695C370BC01CD01BB
:10284000602B712B822B932BC23049F058F4C1308E
:1028500019F00E949D19DAC00E948B19D7C00E94FE
:10286000AF19D4C00E948919D1C0DD2319F08C2F73
:10287000817001C08695882309F4C8C0402F429515
:1028800046954770440F440F602F6F70862F90E07D
:10289000A0E0B0E0042E04C0880F991FAA1FBB1F40
:1028A0000A94D2F704FF10C00FE010E020E030E0FF
:1028B00004C0000F111F221F331F4A95D2F7009545
:1028C00010952095309503C000E010E09801C69562
:1028D000C695C370BC01CD01602B712B822B932B4D
:1028E000C23049F058F4C13019F00E94621A8EC00B
:1028F0000E94501A8BC00E94741A88C00E94C3198B
:1029000085C0CF70DD2339F08C2F0E94E919802F0C
:102910000E94CD127BC0802F0E94D4128C2F0E9467
:102920000A1A74C0023F01F128F4003F41F0013F50
:10293000A1F03FC0033FF9F0043F39F13AC0DD2375
:1029400041F0153008F05EC08C2F8F710E942F1A55
:1029500059C0163008F056C0F7CFDD2339F08C2F60
:102960008F710E94E9194EC0DD23C9F38C2F8F713E
:102970000E940A1A47C0DD2329F08C2F8F710E9414
:10298000D41940C00E94CF193DC0DD2349F0CF715A
:102990008C2F0E94E91963E08C2F0E94E51B32C046
:1029A00081E00E94FA1B123068F182E00E94FA1B5B
:1029B00029C0DD2331F0112391F2802F0E94A31151
:1029C00021C0112399F2093349F49FEFE7EEF3E0B8
:1029D0009150E040F040E1F700C00000802F0E94DD
:1029E000521210C04C2F4F70602FC7010E94460931
:1029F0000E94FA180FC04C2F4F70602FC7010E9421
:102A0000490908C088EF8C0D843020F40E94E80F3B
:102A10000E94CE08DD20C9F00E94541B80FD15C025
:102A2000F70112820E944E1B0E94E919C7010E9401
:102A300046150E944E1BDF91CF911F910F91FF9081
:102A4000EF90DF90CF900C940A1ADF91CF911F91F5
:102A50000F91FF90EF90DF90CF9008950F931F9309
:102A6000CF93DF93EC01688179818A810E942B1BCF
:102A70008C010E94861A0E947719B801CE010E942B
:102A8000DB12DF91CF911F910F910895CF93DF93C8
:102A9000FC019081818123813481232B31F08F3F90
:102AA00031F481E09F3F19F403C081E001C080E070
:102AB00080FD0EC0EF01CF010E94E708882341F09E
:102AC000CE010E942E15CE01DF91CF910C94A20869
:102AD000DF91CF910895882321F00E94751B0C94FB
:102AE000B01B0895882321F00E947B1B0C94B01B1F
:102AF00008950E94821B0E94921B0E94B01B0E949C
:102B00004C210E94A01F80E090E00E944B1080E0CA
:102B100090E00C94611080910001909101010E945D
:102B20002A1D0C9479150E94721B0C948B15E92FA9
:102B3000E295EF704E2F50E0FA013297EE30F1053A
:102B4000B0F4EA59FF4F0C94602E803F91F018F4D6
:102B5000883E68F40EC0843F51F40BC0883E48F0B4
:102B6000813F29F406C093FB882780F9089580E00F
:102B7000089581E008950E94201B0E9497150895F2
:102B8000CF93DF9300D000D01F92CDB7DEB70F9068
:102B90000F900F900F900F90DF91CF910895CF93EA
:102BA000DF9300D000D000D0CDB7DEB726960FB6A9
:102BB000F894DEBF0FBECDBFDF91CF9108951F9374
:102BC000CF93DF93C091BD0116E08091BE01C8177D
:102BD00099F0D0E01C9FF0011D9FF00D1124E154ED
:102BE000FE4F4081518162817381848195810E9471
:102BF000CF152196C770E9CFDF91CF911F9108952E
:102C00004091EF015091F0016091F1017091F2015A
:102C10008091F3019091F4010C94CF150F931F93C1
:102C2000CF93DF938091F40182958F7009F05DC09E
:102C30008091F101882309F458C08091BD01109161
:102C4000BE016091EF017091F001C091F201D0914D
:102C5000F30191E06F3F09F090E0292F06E0811722
:102C600009F443C0209721F07F3F21F030E003C0FA
:102C700031E001C0322F90E030FD34C0089FF001F8
:102C8000099FF00D1124DF01A154BE4F11963C9114
:102C90001197371327C03C91361324C012963C91EC
:102CA000129731111FC013964D915C9114974C1BD4
:102CB0005D0B483C5105B0F48091F4018F70806148
:102CC0008093F401EC53FE4F80818F70806180838C
:102CD0008FEE91E00E944615DF91CF911F910F91E9
:102CE0000C94DF1501968770BACFDF91CF911F91B9
:102CF0000F9108959F92AF92BF92CF92DF92EF9281
:102D0000FF920F931F93CF93DF93CDB7DEB76197F9
:102D10000FB6F894DEBF0FBECDBF8C0185E0F80181
:102D2000DE011D9601900D928A95E1F7F801408130
:102D30005181E2809091EF016091F0012091F201C8
:102D40003091F3012115310531F06F3F31F481E00D
:102D50009F3F19F403C081E001C080E0F82FF170BB
:102D60009F2E80FD46C1F801A380B4808FEEC82E4F
:102D700081E0D82EF090F101F501E21BF30BFF206A
:102D800009F4DFC08091F401E83CF10508F09BC034
:102D9000282F207F09F052C0561313C0491311C0C9
:102DA000FE2CE1100EC08F7080618093F4010E94B0
:102DB0000016C6010E9446158091F401F801858332
:102DC00058C1AB2831F05F3F31F481E04F3F19F437
:102DD00003C081E001C080E080FD03C081E08E255A
:102DE00002C080E090E0F82FF170FF2E80FF1CC041
:102DF0008091BD012091BE0136E0821709F417C110
:102E000090E0389FF001399FF00D1124E154FE4FFE
:102E10006181561306C06081461303C06281E612C9
:102E200003C001968770E9CFFE2CEE2009F421C182
:102E30008091F40181608093F4015AC0561306C05A
:102E4000491304C0E11002C0F8019FC04D875E879E
:102E50008D859E850E94BB15882379F1EE2069F14E
:102E60002091F401822F82958F7090E0029774F088
:102E70008091EF019091F00198878F831986BB862E
:102E8000AA862C87CE0107960E94461586E0F80197
:102E9000AFEEB1E001900D928A95E1F70E940E1617
:102EA0000E9400160DC0561729F14D875E878D854B
:102EB0009E850E94BB1581112CC0C8010E94461539
:102EC000FF24F394D6C0282F207F69F77A2DB98A82
:102ED000A88A6E2D89890E94C0158FEE91E00E940C
:102EE000461586E0F60111928A95E9F70E940016D0
:102EF000F12CBFC04913D9CFE110D7CFF80185839A
:102F0000C8010E94461586E0F60111928A95E9F7FC
:102F1000B0C0EE2091F22091F401822F82958F7043
:102F200090E002970CF4B2CF8091EF019091F00104
:102F30009A8389831B82BD82AC822E83CE01019647
:102F4000A3CFE83CF10508F047C0FE2CEE2009F4C1
:102F5000B4CF561330C049132EC02091F40120FD88
:102F600021C0822F82958F70482F50E04115510566
:102F7000C9F0F80125834F30510541F08F5F982F3C
:102F80009295907F822F8F70892B8583C8010E9434
:102F9000461586E0F801AFEEB1E001900D928A95FA
:102FA000E1F742C086E0F801AFEEB1E001900D928A
:102FB0008A95E1F75EC04D875E878D859E850E946C
:102FC000BB15811163CF8091F40181608093F4017E
:102FD000C8010E9446154DC07A2DB98AA88A6E2D67
:102FE00089890E94C01586E0F60111928A95E9F759
:102FF0001BC0EE2009F461CF4D875E878D859E85CD
:103000000E94BB15F82E882309F457CF86E0F801FB
:10301000AFEEB1E001900D928A95E1F78FEE91E06D
:103020000E949D110E940E160E94001622C04D871C
:103030005E878D859E850E94201B292F22952F70EB
:10304000223028F49F7039F0811105C00BC0243064
:1030500028F49F7049F4805E883020F0C8010E94F7
:1030600046159F2CF92C05C0F8019581907F99F7A2
:10307000F9CF8F2D61960FB6F894DEBF0FBECDBF8E
:10308000DF91CF911F910F91FF90EF90DF90CF9044
:10309000BF90AF909F9008951F93CF93DF93CDB7CC
:1030A000DEB72C970FB6F894DEBF0FBECDBF4F83AF
:1030B000588769877A878B879C87CE0107960E94FD
:1030C0007A168823D1F09F8188852A853B85232B1A
:1030D00031F08F3F31F481E09F3F19F403C081E06C
:1030E00001C080E080FD47C04F81588569857A85A1
:1030F0008B859C850E94CF153EC086E0FE013796E9
:10310000DE01119601900D928A95E1F7FF81E88525
:103110006A857B856115710531F0EF3F31F481E0FF
:10312000FF3F19F403C081E001C080E080FD23C0AF
:103130002091BE0130E0C901019687709927409126
:10314000BD0150E084179507F1F1F983EA837D838F
:103150006C8396E0929FD001939FB00D1124A154EF
:10316000BE4FFE01319601900D929A95E1F7809342
:10317000BE010E94DF1516E08091BD019091BE0155
:10318000891771F1189FC001112481549E4F0E942C
:103190007A16882329F1E091BD011E9FF0011124C8
:1031A000E154FE4F40815181628173818481958118
:1031B0000E94CF158091BD0190E0019687709927FC
:1031C0008093BD01D9CF0E9493151092BE01109239
:1031D000BD01EFEEF1E086E0DF011D928A95E9F78F
:1031E0002C960FB6F894DEBF0FBECDBFDF91CF9106
:1031F0001F910895EF92FF920F931F93CF93DF9348
:103200008C01892B09F46CC0F12CEE24E394E801C5
:103210002196F8018491843740F4843008F051C03D
:10322000813081F0823019F15BC0853709F444C0E8
:10323000A8F19CE7980F903708F052C08F770E9452
:10324000521241C00E5F1F4FFE01849190E2980F11
:10325000983050F48770FE2D01C0FF0F8A95EAF771
:103260008F2F0E94851B14C00E94A3112DC00E5FDA
:103270001F4FFE01849190E2980F983060F48770A0
:10328000FE2D01C0FF0F8A95EAF78F2F0E948B1B3E
:103290000E94B01B19C00E94521216C00E5F1F4F31
:1032A000FE01C491CC2381F08FE99FE00197F1F7F3
:1032B00000C00000C150F6CF0E5F1F4FFE01F4901A
:1032C00003C00E94A3118E018F2D882309F49FCF84
:1032D000EFE9FFE03197F1F700C000008150F5CF32
:1032E000DF91CF911F910F91FF90EF900895089576
:1032F00008950C9478190C9479190E947B196093A5
:1033000026027093270280932802909329020C943E
:1033100079150C947D190F931F930091260210913B
:1033200027022091280230912902602B712B822BD9
:10333000932B1F910F910C947D190F931F93009164
:103340002602109127022091280230912902602341
:103350007123822393231F910F910C947D190F9356
:103360001F9300912602109127022091280230918C
:10337000290260277127822793271F910F910C94B0
:103380007D190C9478190E94C119609322027093E0
:10339000230280932402909325020C94791560E017
:1033A00070E0CB010C94C3190F931F9341E050E0E0
:1033B00060E070E08A019B0104C0000F111F221F12
:1033C000331F8A95D2F7C901B8011F910F910C9450
:1033D000C3190F931F9341E050E060E070E004C018
:1033E000440F551F661F771F8A95D2F780912202DE
:1033F00090912302A0912402B09125028A019B01A1
:10340000082B192B2A2B3B2BC901B8011F910F91B7
:103410000C94C3190F931F9341E050E060E070E0FB
:1034200004C0440F551F661F771F8A95D2F7409539
:103430005095609570958091220290912302A09101
:103440002402B09125028A019B01082319232A2313
:103450003B23C901B8011F910F910C94C3190F931D
:103460001F9341E050E060E070E004C0440F551F3E
:10347000661F771F8A95D2F78091220290912302CE
:10348000A0912402B09125028A019B0108271927E7
:103490002A273B27C901B8011F910F910C94C3192A
:1034A0000F931F9300912202109123022091240276
:1034B00030912502602B712B822B932B1F910F9142
:1034C0000C94C3190F931F930091220210912302B1
:1034D00020912402309125026023712382239323BB
:1034E0001F910F910C94C3190F931F930091220207
:1034F0001091230220912402309125026027712728
:10350000822793271F910F910C94C31908952DE0E2
:10351000929F800D1124E82FE695E695E695877039
:1035200051E001C0550F8A95EAF785E0E89FF00168
:103530001124EB50FE4F20E030E070E04081CB01E1
:10354000022E02C0969587950A94E2F781708195C4
:1035500084278523842781932F5F3F4F25303105B2
:1035600069F708952DE0929F800D1124682F6695CC
:1035700066956695982F977085E0689FB001112435
:1035800040E050E080E0FB01E40FF51FEB50FE4F00
:10359000208130E0092E02C0369527950A94E2F783
:1035A00021703327042E01C0220F0A94EAF7822BE0
:1035B0004F5F5F4F4530510531F70895BF92CF926D
:1035C000DF92EF92FF920F931F93CF93DF938C01C3
:1035D000C0902202D0902302E0902402F0902502B5
:1035E0008091260290912702A0912802B091290291
:1035F000C82AD92AEA2AFB2ACFE1D0E0D701C6019E
:103600000C2E04C0B695A795979587950A94D2F786
:1036100080FD04C0219790F7B12C07C0BC2EB801E3
:103620008C2F0E9465090197A9F38B2DDF91CF9113
:103630001F910F91FF90EF90DF90CF90BF90089572
:10364000CF93DF93EC010E94DE1ABE010E94650950
:10365000DF91CF9108951F93CF93DF93EB0190916A
:10366000BC01992321F0CB010E94201B13C08823A9
:1036700049F0CB010E94DE1A182F682FCE010E945C
:10368000871A04C0CB010E94B21A182FBE01812FE5
:103690000E946509DF91CF911F91089580912A02C0
:1036A000859585958595089580912A02877008955E
:1036B00090912A02977081E009F480E0089580914A
:1036C0003602089590913602892B80933602089530
:1036D00080959091360289238093360208958093D5
:1036E0003602089510923602089590913502892B82
:1036F00080933502089580959091350289238093B7
:103700003502089510923502089590913402892B64
:103710008093340208958095909134028923809398
:103720003402089510923402089580912B02089576
:1037300008950C94981B0C94991B90912B02981748
:1037400021F080932B020C949B1B089580912B02F7
:10375000882329F010922B0280E00C949B1B089583
:10376000E0910001F0910101809136028083E091A7
:103770000001F0910101908180913502892B8083B5
:10378000E0910001F0910101908180913402892B38
:10379000808380912B02882381F0E0910001F091D9
:1037A00001019081892B808380910001909101011A
:1037B0000E94E41C81110E94A61B8091000190913F
:1037C00001010C94F40F0C94981B98E0899F9001D0
:1037D0001124262B20932A020E94E91980912A02A3
:1037E0008595859585950C94E31B10922A0280E0BF
:1037F0000C94E31B20912A028095822380932A0255
:10380000982F977079F430E0482F082E000C550B54
:103810002417350739F08595859585950E940A1AF4
:103820000C94F51B08959093A3018093A201089531
:103830008295982F937344E0949F900111248C7C7F
:1038400086958695282B822F8575880F2A7A26954E
:10385000822B0895CF93DF93D92F0E94181CC82F75
:103860008D2F0E94181C2C2F30E0322F2227A90107
:10387000482BCA01DF91CF91089580E090E00E942B
:10388000822E21E08C3E9E4F09F020E0822F089589
:1038900082E090E00C947A2E83E090E00C947A2EF3
:1038A000CF9384E090E00E947A2EC82F81E290E0CE
:1038B0000E947A2E2C2F30E0A901582BCA01CF91FB
:1038C0000895CF93C92F682F84E090E00E94882E3E
:1038D0006C2F81E290E0CF910C94882EAB01BC015B
:1038E0008FE090E00C949A2EAB01BC0183E190E054
:1038F0000C949A2E60E070E0CB010C94741C60E094
:1039000070E0CB010E946E1C0C947A1C6CEE7EEF72
:1039100080E090E00E94A62E60E082E090E00E94AD
:10392000882E60E083E090E00E94882E10922602AC
:1039300010922702109228021092290260E084E07F
:1039400090E00E94882E60E081E290E00E94882E44
:1039500060E085E090E00E94882E60E086E090E0E4
:103960000E94882E6FEF87E090E00E94882E40E052
:1039700050E0BA0188E090E00E949A2E60E08DE06D
:1039800090E00E94882E40E050E0BA0188E190E08B
:103990000E949A2E60E087E190E00E94882E40E02D
:1039A00050E0BA018CE190E00E949A2E60E080E243
:1039B00090E00E94882E0C947F1C0C94861C682F2B
:1039C0008EE090E00C94882EFC01329697E080E027
:1039D000915029F021912223D9F38F5FF9CF0895D7
:1039E000662349F0FC01329608962191621729F06E
:1039F000E817F907D1F780E0089581E008959C0168
:103A0000FC0132969FEF80E04191461789F09F3F7D
:103A100019F4411101C0982F8F5F8630A9F79F3F9D
:103A200039F0F901E90FF11D97FDFA9562830895C8
:103A300008959C012A5F3F4FFC014281461301C05B
:103A40001282019682179307B9F708950C94FF1C10
:103A50000C94191D029626E0FC0111922A95E9F7B3
:103A6000089508950C94311D0C94311DCF930E943C
:103A7000341D0E94030C0E94321DC0E08C2F0E9456
:103A8000540B892B29F4CF5FC530C1F780E001C00A
:103A900081E0CF9108950C94311D0C944B1D0E9430
:103AA0004D1D80917C02843049F11092380220E44F
:103AB00088E190E00FB6F894A895809360000FBE5F
:103AC0002093600080E00E94CE080E944D1D83B7C5
:103AD000817F846083BF83B7816083BF789488953A
:103AE00083B78E7F83BF0FB6F894A895809160004E
:103AF000886180936000109260000FBE08950C945E
:103B0000311D0E9493150E94E80F0E94CE080C946C
:103B10007F1D1F920F920FB60F9211248F939F93C8
:103B2000AF93BF9380913802811113C080917202CC
:103B300090917302A0917402B09175024196A11DFB
:103B4000B11D8093720290937302A0937402B0939C
:103B50007502BF91AF919F918F910F900FBE0F9003
:103B60001F90189582E084BD93E095BD9AEF97BDB4
:103B700080936E0008952FB7F8948091720290910F
:103B80007302A0917402B09175022FBF08952FB7F0
:103B9000F894609172027091730280917402909116
:103BA00075022FBF08959C014FB7F894809172025F
:103BB00090917302A0917402B09175024FBF821B65
:103BC000930B089578941F920F920FB60F921124C1
:103BD0008F939F93AF93BF938091720290917302E2
:103BE000A0917402B09175020196A11DB11D809340
:103BF000720290937302A0937402B0937502BF9106
:103C0000AF919F918F910F900FBE0F901F901895BD
:103C100087E797E790930108809300089AE088E18E
:103C20000FB6F894A895809360000FBE9093600043
:103C3000FFCF0E943D1C811102C00E94DD1C0E942A
:103C4000481C809337020E94501C90937702809307
:103C500076020E944C1C682F70E080E090E00C948B
:103C600089198091400280FF0BC06091070185E0B7
:103C7000689FB001112475956795759567952BC060
:103C800081FF09C06091070185E0689FB0011124A0
:103C90007595679520C082FF07C06091070185E098
:103CA000689FB001112417C090913F029923D1F071
:103CB00060910601961788F72091070185E0289FFB
:103CC00090011124929FA001939F500D112470E048
:103CD000CA010E944C2E6038710540F461157105CF
:103CE00019F406C065E070E0862F08958FE7089507
:103CF00081E008958091400280FF08C06091030137
:103D000070E0759567957595679521C081FF06C030
:103D10006091030170E07595679519C082FF04C03A
:103D20006091030170E010C090913F02992399F0D7
:103D3000609102019617A0F780910301899FC0014D
:103D4000112470E00E944C2E6038710540F461151A
:103D5000710519F406C061E070E0862F08958FE7C1
:103D6000089581E00895803F21F40E94311E8195DD
:103D700004C0813F29F40E94311E809344020895BB
:103D8000823F21F40E94311E819504C0833F29F4B3
:103D90000E94311E809343020895893F19F40E94C6
:103DA0007A1E05C08A3F31F40E947A1E8195809365
:103DB000450208958B3F21F40E947A1E819504C02C
:103DC0008C3F29F40E947A1E809346020895843F16
:103DD00021F480914202816017C0853F21F48091D7
:103DE0004202826011C0863F21F4809142028460C9
:103DF0000BC0873F21F480914202886005C0883F54
:103E000031F48091420280618093420208958D3F97
:103E100021F48091400281600BC08E3F21F480919B
:103E20004002826005C08F3F29F480914002846087
:103E3000809340020895803F39F48091440287FFC7
:103E40006CC01092440269C0813F29F48091440201
:103E50001816BCF362C090914302823F29F497FF89
:103E60005CC01092430259C0833F19F41916CCF379
:103E700054C0893F41F48091450218160CF04DC0A2
:103E8000109245024AC08A3F29F48091450287FF7B
:103E900044C0F6CF8B3F39F48091460287FF3DC086
:103EA000109246023AC08C3F29F4809146021816BF
:103EB000BCF333C0843F21F4809142028E7F17C04F
:103EC000853F21F4809142028D7F11C0863F21F40D
:103ED000809142028B7F0BC0873F21F48091420288
:103EE000877F05C0883F31F4809142028F7E8093A6
:103EF000420213C08D3F21F4809140028E7F0BC09F
:103F00008E3F21F4809140028D7F05C08F3F29F4C0
:103F1000809140028B7F8093400280914302811107
:103F20000EC08091440281110AC080914502811126
:103F300006C080914602811102C010923F0208958E
:103F40008091370283FF7EC088EE93E00E9458077D
:103F5000809142021F928F9383EE93E09F938F9301
:103F60000E94F10781EE93E00E945807809143027E
:103F7000282F082E000C330B3F938F938EED93E088
:103F80009F938F930E94F1078CED93E00E94580756
:103F900080914402282F082E000C330B3F938F93FF
:103FA00089ED93E09F938F930E94F10787ED93E053
:103FB0000E94580780914502282F082E000C330BD1
:103FC0003F938F9384ED93E09F938F930E94F1072B
:103FD00082ED93E00E94580780914602282F082E18
:103FE000000C330B3F938F938FEC93E09F938F9351
:103FF0000E94F1078CEC93E00E94580780913F02E9
:104000001F928F9389EC93E09F938F930E94F10707
:1040100087EC93E00E945807809140021F928F9393
:1040200084EC93E09F938F930E94F10781EC93E0DF
:104030000E9458078DB79EB74C960FB6F8949EBF56
:104040000FBE8DBF81E492E00E943D100E94BB1D17
:1040500090933E0280933D020895CF93DF9300D06A
:1040600000D000D0CDB7DEB786E0E1E4F2E0DE01BB
:10407000119601900D928A95E1F78091430281118A
:1040800005C080914402882309F47AC080913B02E4
:1040900090913C020E94D31DAC0190913F02992364
:1040A00039F02091080130E02417350758F068C036
:1040B000209109018AE0289F9001112424173507D7
:1040C00018F05EC09F3F19F09F5F90933F021092DF
:1040D00045021092460280914302181624F40E9471
:1040E000311E809343028091430287FF05C00E94E6
:1040F000311E81958093430280914402181624F466
:104100000E94311E809344028091440287FF05C0C3
:104110000E94311E819580934402309143023323E3
:10412000E1F0209144022223C1F045EB3403C001A9
:104130001124992319F09093430203C081E08093E6
:10414000430235EB2303C0011124992319F0909306
:10415000440203C081E0809344020E94A01F80912A
:104160003D0290913E0290933C0280933B0286E098
:10417000FE013196A1E4B2E001900D928A95E1F73B
:1041800080914502811105C080914602882309F47F
:104190007AC08091390290913A020E94D31DAC01FD
:1041A00090913F02992339F02091040130E02417C7
:1041B000350758F068C0209105018AE0289F9001DA
:1041C00011242417350718F05EC09F3F19F09F5F38
:1041D00090933F0210924302109244028091450254
:1041E000181624F40E947A1E80934502809145029D
:1041F00087FF05C00E947A1E8195809345028091B9
:104200004602181624F40E947A1E8093460280917A
:10421000460287FF05C00E947A1E81958093460260
:10422000309145023323E1F0209146022223C1F070
:1042300045EB3403C0011124992319F090934502F2
:1042400003C081E08093450235EB2303C0011124B4
:10425000992319F09093460203C081E080934602AF
:104260000E94A01F80913D0290913E0290933A02DD
:104270008093390286E0FE013196A1E4B2E001901C
:104280000D928A95E1F726960FB6F894DEBF0FBE21
:10429000CDBFDF91CF910895E1E4F2E086E0DF0148
:1042A0001D928A95E9F710923F02109240020895FC
:1042B0008BE096E00E9458071F9281E08F931F9237
:1042C00085E08F938DEB95E09F938F930E94F1078C
:1042D0000F900F900F900F900F900F9008958330D4
:1042E000E9F128F4813061F0823009F108958530D8
:1042F00009F462C008F449C0863009F474C0089516
:1043000080910901262F30E0280F311D2F3F310504
:1043100024F4680F6093090103C08FEF80930901B3
:10432000809109011F928F9386EF94E072C0809173
:104330000801262F30E0280F311D2F3F310524F4CE
:10434000680F6093080103C08FEF8093080180918C
:1043500008011F928F9384EE94E05BC08091070167
:10436000262F30E0280F311D2F3F310524F4680F30
:104370006093070103C08FEF8093070180910701CD
:104380001F928F9381ED94E044C080910601262F07
:1043900030E0280F311D2F3F310524F4680F609362
:1043A000060103C08FEF80930601809106011F92E2
:1043B0008F938CEB94E02DC080910301262F30E089
:1043C000280F311D2F3F310524F4680F609303013E
:1043D00003C08FEF80930301809103011F928F939D
:1043E00083EA94E016C080910201262F30E0280F66
:1043F000311D2F3F310524F4680F6093020103C083
:104400008FEF80930201809102011F928F9388E8C1
:1044100094E09F938F930E94F1070F900F900F905D
:104420000F900895833081F128F4813059F0823063
:10443000D1F00895853009F449C0B8F1863009F407
:1044400056C0089580910901681720F4861B809357
:10445000090102C010920901809109011F928F93F6
:1044600089E794E054C080910801681720F4861B06
:104470008093080102C010920801809108011F92E8
:104480008F9387E694E043C080910701681720F47A
:10449000861B8093070102C01092070180910701DB
:1044A0001F928F9384E594E032C0809106016817D3
:1044B00020F4861B8093060102C0109206018091B1
:1044C00006011F928F938FE394E021C08091030136
:1044D000681720F4861B8093030102C01092030129
:1044E000809103011F928F9386E294E010C0809127
:1044F0000201681720F4861B8093020102C010920B
:104500000201809102011F928F938BE094E09F93B0
:104510008F930E94F1070F900F900F900F900895C6
:10452000CF93C82F1F928F9380E197E09F938F9333
:104530000E94F10781E090E0A0E0B0E0BC01CD0175
:1045400004C0660F771F881F991FCA95D2F70E9473
:1045500089190F900F900F900F90CF910C94931595
:10456000CF93DF938B3109F4F9C108F08FC18B3001
:1045700009F4B2C108F065C1863009F4B0C120F475
:10458000853009F4BEC16CC2873009F4CCC18830D3
:1045900009F066C284E59CE00E94580785EA9BE02A
:1045A0000E9458070E944C1C1F928F9382EA9BE046
:1045B0009F938F930E94F10780EA9BE00E94580727
:1045C0000E94481CC82F8DE89BE00E9458071F924C
:1045D000CF9388E89BE09F938F930E94F10786E832
:1045E0009BE00E9458078CE79BE00E9458078C2FA5
:1045F00081701F928F9389E79BE09F938F930E9416
:10460000F10787E79BE00E9458078DE69BE00E9438
:104610005807C1FB882780F91F928F938AE69BE099
:104620009F938F930E94F10788E69BE00E945807B2
:104630008CE59BE00E945807C2FB882780F91F92F7
:104640008F9389E59BE09F938F930E94F10787E505
:104650009BE00E9458078EE49BE00E945807C3FB32
:10466000CC27C0F91F92CF938BE49BE09F938F934D
:104670000E94F10789E49BE00E9458070E94501CA9
:10468000EC0185E39BE00E945807DF93CF9380E322
:104690009BE09F938F930E94F1078EE29BE00E9424
:1046A000580785E19BE00E9458078C2F81701F926C
:1046B0008F9382E19BE09F938F930E94F1078DB7C8
:1046C0009EB780960FB6F8949EBF0FBE8DBF80E157
:1046D0009BE00E94580789EF9AE00E945807C1FBAF
:1046E000882780F91F928F9386EF9AE09F938F938C
:1046F0000E94F10784EF9AE00E94580782EE9AE048
:104700000E9458078D2F81701F928F938FED9AE032
:104710009F938F930E94F1078DED9AE00E945807B6
:104720008BEC9AE00E945807D695D1701F92DF93C8
:1047300088EC9AE09F938F930E94F10786EC9AE0B1
:104740000E94580784EB9AE00E945807C2FB882712
:1047500080F91F928F9381EB9AE09F938F930E9431
:10476000F1078FEA9AE00E9458078DE99AE00E94CB
:104770005807C3FB882780F91F928F938AE99AE034
:104780009F938F930E94F10788E99AE00E9458074F
:104790008EE89AE00E945807C4FB882780F91F9290
:1047A0008F938BE89AE09F938F930E94F10789E89B
:1047B0009AE00E94580787E79AE00E945807C5FBD5
:1047C000882780F91F928F9384E79AE09F938F93B5
:1047D0000E94F10782E79AE00E94580786E59AE076
:1047E0000E945807C6FB882780F91F928F9383E5A4
:1047F0009AE09F938F930E94F1078DB79EB78096A2
:104800000FB6F8949EBF0FBE8DBF81E59AE00E945F
:10481000580789E49AE00E945807C7FBCC27C0F9E3
:104820001F92CF9386E49AE09F938F930E94F107A3
:1048300084E49AE00E9458070F900F900F900F9019
:1048400049C0803109F4B4C020F48E3009F49AC014
:1048500007C1863109F4C7C0893109F001C18BE66F
:1048600098E00E9458078EE398E00E94580787E07E
:1048700098E00E9458078FED97E00E94580789EA58
:1048800097E00E9458078EE797E08FC08A32E1F0E8
:1048900060F4873209F4E0C028F48E3108F4E0C0F7
:1048A0008D51DBC0893269F1DBC0833448F48A332F
:1048B00008F0D0C0853309F4CFC0883369F0D0C088
:1048C000833409F4C9C0CCC083E49CE00E9458073B
:1048D0000E94DD1CC1E0C9C081EA98E066C08091F9
:1048E0003702817F8E7F809337028AE798E00E94AB
:1048F00058078FE39CE00E94580781E080934802AC
:10490000E9CF0E94931583E29CE00E9458079FEF35
:1049100023ED80E3915020408040E1F700C000008B
:104920000E94081ED7CF80913702C82FC095C17052
:10493000C0FB80F980933702CC2329F087E19CE00B
:104940000E94580792C08AE09CE00E94580780911C
:104950003702897F877F80933702BCCF90913702DF
:1049600091FBCC27C0F981E0C827892FC0FB81F9D2
:1049700080933702CC2319F08DEF9BE029C08FEE96
:104980009BE013C09091370292FBCC27C0F981E0E5
:10499000C827892FC0FB82F980933702CC2319F0F6
:1049A00080EE9BE015C080ED9BE00E94580792CFFF
:1049B0009091370293FBCC27C0F981E0C827892F5B
:1049C000C0FB83F980933702CC2351F084EC9BE049
:1049D0000E9458078091370281608093370245C05A
:1049E00087EB9BE0E2CF80E797E00E9458070E94A8
:1049F000E80F1F928F9386E597E09F938F930E9415
:104A0000F107809114011F928F938FE397E09F939A
:104A10008F930E94F107809155021F928F938CE231
:104A200097E09F938F930E94F1070E94C71D9F9369
:104A30008F937F936F9385E197E09F938F930E946D
:104A4000F1078DB79EB742960FB6F8949EBF0FBE82
:104A50008DBF40CF895301C080E00E9490223ACFA1
:104A600085EB9BE00E945807C0E08C2FDF91CF912F
:104A7000089580E008950C9439258E518A3030F4E1
:104A8000E82FF0E0E757FE4F8081089580E0089519
:104A9000CF93C82F80914802813059F020F08230A6
:104AA00009F445C039C10E945F1B823209F036C14A
:104AB00004C00E945F1B823261F48C2F0E943B2550
:104AC000811104C08C2F0E94B0222FC081E090E0A1
:104AD0002CC08C2F0E943925811126C0C431E1F0F1
:104AE00070F4CB3081F0C031D1F40E94582188E0BD
:104AF00097E00E94580782E08093480215C0C932AF
:104B000059F0C83361F48AE798E00E9458078CE0B6
:104B100097E00E94580708C01092480201C186E041
:104B200097E00E945807FCC081E08170FBC0C4324E
:104B300028F5CE3108F0C1C0CB30A1F1D0F4C73098
:104B400009F0D0C08EE18093090182E380930801CF
:104B50008AE08093070184E18093060188E08093D6
:104B6000030188E2809302018CEA95E00E945807D5
:104B7000BCC0C33149F1C431C1F0B4C0CB3409F475
:104B8000A6C028F4C93289F0C83361F0ABC0C13582
:104B900009F49BC0C23509F496C0CE3409F0A2C016
:104BA0006AE09BC00E945821A0C0809147028823E0
:104BB00019F01092470299C089EB95E00E945807BE
:104BC00081E080934802AEC083E995E00E945807D7
:104BD00081E895E00E945807809109011F928F9308
:104BE0008EE795E09F938F930E94F1078CE795E005
:104BF0000E9458078AE695E00E94580780910801B4
:104C00001F928F9387E695E09F938F930E94F10701
:104C100085E695E00E94580786E595E00E945807D2
:104C2000809107011F928F9383E595E09F938F9367
:104C30000E94F10781E595E00E94580780E495E025
:104C40000E945807809106011F928F938DE395E093
:104C50009F938F930E94F1078BE395E00E94580782
:104C600086E295E00E945807809103011F928F937E
:104C700083E295E09F938F930E94F10781E295E094
:104C80000E9458078AE095E00E945807809102012F
:104C90001F928F9387E095E09F938F930E94F10777
:104CA00085E095E00E9458078DB79EB748960FB6ED
:104CB000F8949EBF0FBE8DBF18C08C2F0E943D255B
:104CC0008093470212C061E003C061E006C06AE061
:104CD000809147020E946F2108C0809147020E9484
:104CE000122203C08AEA95E013C08091470288230C
:104CF00069F01F928F9384EA95E09F938F930E94AF
:104D0000F1070F900F900F900F9004C081EA95E08B
:104D10000E94580781E006C01092480280E002C05D
:104D200080E003CFCF9108958091540208959FB7FA
:104D3000F89410924B029FBF90917C02943009F03E
:104D400057C09091E9009F703091EC00232F2170A3
:104D500030FD20E8922B23E02093E9002091EB0026
:104D600020FF43C02091EE0027FF3FC02091490261
:104D7000222321F02091E80025FF37C0109249023C
:104D800026E03091E80035FD15C030917C023430CA
:104D900061F53091EB0035FD28C0215021F481E010
:104DA0008093490222C0EFE9FFE03197F1F700C09C
:104DB0000000E7CF8093F1008091E80085FD0AC0F4
:104DC0008091E80080FFFCCF8091E8008E7780938F
:104DD000E80006C08FB7F89421E020934B028FBF04
:104DE0009F709093E90080E008959F709093E90090
:104DF0008FEF0895CF93DF9300D01F92CDB7DEB72A
:104E000090917C02943019F589837B836A8382E0D8
:104E10008093E9008FEF9091E800815095FD06C0E6
:104E200095ED9A95F1F700008111F5CF8091E8009A
:104E300085FF0DC040E050E063E070E0CE010196D8
:104E40000E94A3298091E8008E778093E8000F905C
:104E50000F900F90DF91CF910895CF93DF93EC01E6
:104E60000E948629823011F0843031F4BE0184E042
:104E7000DF91CF910C94FA26DF91CF910895BC0178
:104E800083E00C94FA26CF93DF93EC010E948629ED
:104E9000823011F08430F9F482E08093E9008FEFE2
:104EA0009091E800815095FD06C095ED9A95F1F737
:104EB00000008111F5CF8091E80085FF0CC040E033
:104EC00050E066E070E0CE010E94A3298091E800E6
:104ED0008E778093E800DF91CF910895CF93DF9391
:104EE000EC010E948629823011F0843039F581E08E
:104EF0008093E9008FEF9091E800815095FD06C006
:104F000095ED9A95F1F700008111F5CF8091E800B9
:104F100085FF14C040E050E068E070E0CE010E94E0
:104F2000A3298091E8008E778093E80088E0FE0155
:104F3000ACE4B2E001900D928A95E1F7DF91CF9158
:104F4000089584E89CE00E94580780917B028111BB
:104F500009C00E94342B0E94912B8091E200846052
:104F60008093E200089580E89CE00E945807109228
:104F70007B0208958CE79CE00C94580788E79CE03E
:104F80000C94580784E79CE00E9458070C94811DFC
:104F900020914A022F5F822F62E30E94402E9923C4
:104FA00019F020934A02089510924A0280914B0210
:104FB000882371F180917C02843041F58091E90071
:104FC0008F702091EC00922F917020FD90E8892B3A
:104FD00093E09093E9009091EB0090FF14C09091C2
:104FE000EE0097FF10C09091E80095FF03C010926B
:104FF000F100F9CF9091E80090FF05C09091E80092
:105000009E779093E8008F708093E90010924B0296
:10501000089542E061EC81E00E94AD2A42E261EC39
:1050200082E00E94AD2A42E261EC83E00C94AD2A5A
:1050300080917E02833009F460C030F4813071F0D9
:10504000823009F499C008958A3009F485C08B3004
:1050500009F46BC0893009F0A7C020C080917D029F
:10506000813A09F0A1C08091E800877F8093E80031
:105070008091810290918202892B21F468E08CE476
:1050800092E003C060E080E090E070E00E94EE29D2
:105090008091E8008B778093E800089580917D02ED
:1050A000813209F081C08091810290918202029741
:1050B00008F07AC08091E800877F8093E8008091B3
:1050C000E80082FD05C080917C028111F8CF6CC0A0
:1050D0002091F3008091F20090E0922B029729F446
:1050E0008091F1008B7F813021F48091F1008093D9
:1050F00054028091E8008B7753C080917D02813A01
:1051000009F052C08091810290918202892B09F0AE
:105110004BC08091E800877F8093E8008091E80091
:1051200080FFFCCF8091140136C080917D028132D6
:10513000D9F58091810290918202892BA9F5809105
:10514000E800877F8093E8000E94E22A80917F0236
:10515000809314010C94931580917D02813221F586
:105160008091E800877F8093E8000E94E22A809186
:10517000800280935502089580917D02813AA1F4C6
:105180008091E800877F8093E8008091E80080FFAD
:10519000FCCF809155028093F1008091E8008E77DA
:1051A0008093E8000C94E22A089584B7877F84BF37
:1051B0000FB6F894A8958091600088618093600094
:1051C000109260000FBE90E080E80FB6F8948093D4
:1051D0006100909361000FBE0E9487100E94342BE3
:1051E0000E94912B8091E20084608093E20087E925
:1051F00096E20E94131C78940E94252E0E948F1024
:105200008AE091E00E94E30F83E69CE00E94580749
:1052100080917C02853089F48FE59CE00E945807DC
:105220000E944F1D80917A02882391F30E94361DBF
:10523000882371F30E948D29EBCF0E94BF10E8CF25
:105240000C942229292F332723303105C9F060F42B
:105250002130310581F02230310509F047C08BE55E
:1052600090E026EB3CE046C02132310511F12232BC
:10527000310561F13BC082E190E021E13DE03AC0BF
:1052800099278130910561F040F08230910559F005
:10529000039761F5E8E8FCE008C0E2EBFCE005C03C
:1052A000E2EAFCE002C0EEE8FCE0849190E09F01BD
:1052B00021C063307105D0F4660F771FFB01E456FF
:1052C000FE4F2081318189E090E014C06330710588
:1052D00068F4FB01EE0FFF1FEA56FE4F208131817B
:1052E000FB01ED56FE4F808190E004C080E090E02D
:1052F00020E030E0FA0131832083089580917C0220
:10530000843011F081E0089582E008958091560282
:10531000811102C00C947E29089580E189BD82E14B
:1053200089BD09B400FEFDCF8091D8008F7D8093A8
:10533000D8008091E00082608093E0008091E000DE
:1053400081FDFCCF0895CF92DF92EF92FF920F93F1
:105350001F93CF93DF93EC018B017A010E94012B05
:10536000811133C0E114F10439F0F701808191819A
:10537000081B190BC80FD91FC12CD12C0115110501
:1053800019F18091E80085FD16C08091E8008E77C4
:105390008093E800E114F10449F0F70180819181E4
:1053A000C80ED91ED182C08285E00FC00E94012B99
:1053B000882321F30AC089918093F10001501109DB
:1053C000FFEFCF1ADF0ADACF80E0DF91CF911F9194
:1053D0000F91FF90EF90DF90CF900895209183027E
:1053E000309184022617370748F06115710539F4AA
:1053F0002091E8002E772093E80001C0B901FC015C
:1054000020E06115710579F180917C028823F1F12A
:105410008530F1F18091E80083FD3CC08091E80087
:1054200082FD2EC08091E80080FFEBCF2091F30039
:105430008091F20090E0922B6115710551F0883057
:10544000910538F421912093F10061507109019682
:10545000F3CF21E0089709F020E08091E8008E77F3
:105460008093E800CECF2111CFCF0AC080917C027B
:10547000882361F0853061F08091E80083FD0AC0E7
:105480008091E80082FFF2CF80E0089582E00895E5
:1054900083E0089581E00895209183023091840291
:1054A0002617370748F06115710539F42091E80097
:1054B0002E772093E80001C0B901FC0120E06115BE
:1054C000710591F180917C02882309F440C08530F8
:1054D00009F43FC08091E80083FD3DC08091E80061
:1054E00082FD2FC08091E80080FFE9CF2091F3007A
:1054F0008091F20090E0922B6115710559F088308F
:10550000910540F424912093F10031966150710986
:105510000196F2CF21E0089709F020E08091E800A1
:105520008E778093E800CBCF2111CCCF0AC0809139
:105530007C02882361F0853061F08091E80083FD72
:105540000AC08091E80082FFF2CF80E0089582E0F7
:10555000089583E0089581E00895982F973068F5C5
:105560009093E900981739F07091EC002091ED00CC
:105570005091F00003C0242F762F50E021FD02C08F
:105580009F5FECCF3091EB003E7F3093EB0030918A
:10559000ED003D7F3093ED003091EB0031603093B2
:1055A000EB007093EC002093ED005093F0002091FD
:1055B000EE0027FDE5CF80E008958F708093E9002D
:1055C00081E0089580917D0287FF11C08091E800FD
:1055D00082FD05C080917C028111F8CF11C08091BD
:1055E000E8008B770BC080917C02882349F0809182
:1055F000E80080FFF8CF8091E8008E778093E80084
:1056000008952091E4003091E50095E64091EC008A
:10561000842F817040FF23C08091E80080FD1DC071
:1056200080917C02882399F0853099F08091EB007D
:1056300085FD11C04091E4005091E5002417350725
:1056400029F3915011F09A01E1CF84E0089582E0AE
:10565000089583E0089581E0089580E008954091E1
:10566000E80042FFDDCF08950E94A22B0E94AA2BE2
:10567000E0EEF0E0808181608083E8EDF0E0808101
:105680008F77808319BCA7EDB0E08C918E7F8C93CF
:1056900080818F7E808310927B0208950F931F93E9
:1056A000CF93DF930E94A22B0E94AA2BC8EDD0E0DB
:1056B00088818F77888388818068888388818F7DBF
:1056C000888319BC10927C021092780210927A02A0
:1056D0001092790200EE10E0F80180818B7F8083C8
:1056E00088818160888342E060E080E00E94AD2A8A
:1056F000E1EEF0E080818E7F8083E2EEF0E0808159
:1057000081608083808188608083F80180818E7FC2
:105710008083888180618883DF91CF911F910F9171
:105720000895E8EDF0E080818F7E8083E7EDF0E082
:1057300080818160808384E082BF81E080937B02EE
:105740000C944E2BE8EDF0E080818E7F80831092E8
:10575000E20008951092DA001092E10008951F927D
:105760000F920FB60F9211242F933F934F935F9395
:105770006F937F938F939F93AF93BF93EF93FF9319
:105780008091E10082FF0BC08091E20082FF07C0A0
:105790008091E1008B7F8093E1000E94C827809177
:1057A000DA0080FF1FC08091D80080FF1BC080916D
:1057B000DA008E7F8093DA008091D90080FF0DC0DF
:1057C00080E189BD82E189BD09B400FEFDCF81E0A1
:1057D00080937C020E94A12705C019BC10927C0214
:1057E0000E94B3278091E10080FF19C08091E20000
:1057F00080FF15C08091E2008E7F8093E20080914F
:10580000E20080618093E2008091D8008062809302
:10581000D80019BC85E080937C020E94BE2780914D
:10582000E10084FF30C08091E20084FF2CC080E161
:1058300089BD82E189BD09B400FEFDCF8091D80009
:105840008F7D8093D8008091E1008F7E8093E1006E
:105850008091E2008F7E8093E2008091E20081607F
:105860008093E20080917802882311F084E007C0E1
:105870008091E30087FD02C081E001C083E0809356
:105880007C020E94C2278091E10083FF29C08091A1
:10589000E20083FF25C08091E100877F8093E100D3
:1058A00082E080937C02109278028091E1008E7FEA
:1058B0008093E1008091E2008E7F8093E2008091EE
:1058C000E20080618093E20042E060E080E00E94BC
:1058D000AD2A8091F00088608093F0000E94BA2782
:1058E000FF91EF91BF91AF919F918F917F916F91B8
:1058F0005F914F913F912F910F900FBE0F901F908E
:1059000018951F920F920FB60F9211242F933F9369
:105910004F935F936F937F938F939F93AF93BF93B7
:10592000CF93DF93EF93FF93C091E900CF70809105
:10593000EC00D82FD17080FDD0E81092E900809162
:10594000F000877F8093F00078940E94C52C10921D
:10595000E9008091F00088608093F000CD2BCF703B
:10596000C093E900FF91EF91DF91CF91BF91AF918B
:105970009F918F917F916F915F914F913F912F9167
:105980000F900FBE0F901F9018951F93CF93DF932A
:10599000CDB7DEB7AA970FB6F894DEBF0FBECDBF66
:1059A000EDE7F2E08091F100819322E0E538F20723
:1059B000C9F70E9418288091E80083FF2EC18091CA
:1059C0007D0290917E02492F50E04A30510508F047
:1059D00024C1FA01EC58FF4F0C94602E803821F05E
:1059E000823809F01AC108C08091790290917A0238
:1059F000992389F082600FC0809181028F70873077
:105A000008F00BC18093E9008091EB0085FB8827AB
:105A100080F91092E9009091E800977F9093E80058
:105A20008093F1001092F100D1C0282F2D7F09F052
:105A3000F4C0882319F0823061F0EFC080917F02BA
:105A4000813009F0EAC0933009F080E080937A0257
:105A50002EC080917F0281112AC0809181028F70B7
:105A60002FEF280F263008F0D8C08093E90020914E
:105A7000EB0020FF1CC0933021F48091EB0080628A
:105A800014C09091EB0090619093EB0021E030E026
:105A9000A90102C0440F551F8A95E2F74093EA001E
:105AA0001092EA008091EB0088608093EB001092E6
:105AB000E9008091E800877F8093E8000E94E22A55
:105AC000ACC08111AAC010917F021F778091E300C2
:105AD0008078812B8093E3008091E800877F80931A
